:02000004080AE8
:1000000000000A0820430A08000006000600050157
:080010000402350800000000A5
:04001800383D0A085D
:1000200009480A4908B5884205D0094A824202D0E7
:10003000121A03F0D7FD0748074A0021121A03F0ED
:10004000F9FD064808BD00BF0000002084420A08F0
:100050007400002078000020DC810020DC8100207A
:1000600070B502F0B5F90025054E064CA41BA40896
:10007000A54200D170BD56F8043B98470135F7E71B
:1000800054420A0878420A0800F042BB08B500F062
:1000900037FDBDE8084002F05DB901F0ADBC01F0EC
:1000A000ABBC01F0B1BC000000210C2008B5024A35
:1000B00001F0C6FBFEE700BF0D150A080078B0FA94
:1000C00080F0400970470123037070470122014B03
:1000D0001A707047747B002003681847012A03D008
:1000E000022A03D0002070470160FBE70B68036021
:1000F000F8E7704738B50424034D05EB041001F010
:10010000BEFD013CF9D238BD207B002010B504466D
:100110004FF4866102F0EDFF204610BD436913B134
:1001200083690C301847704713B500210446084610
:1001300001F02CFA0023204601A9019301F03EFAB8
:10014000019C0CB1012323710021012001F01EFA52
:100150002CB1236820469B6898470023237102B086
:1001600010BD10B58368044613B1032201469847B9
:10017000204610BD07B58068002338B1CDE90013D3
:10018000022101F023FAB0FA80F0400903B05DF8D3
:1001900004FB000038B5104B044603608368A3B12C
:1001A0006FF000410022FFF7E5FF0021A06801F099
:1001B00035FA237903F0FF0513B101F0DFF9F8E711
:1001C0002946A06801F0F2F9A56004F10C00FFF7E0
:1001D000C8FF204638BD00BF003F0A0810B50446DE
:1001E000FFF7D8FF20461C2102F083FF204610BDF8
:1001F0000EB410B50023016820208DB00FAA52F86C
:10020000044BCDE90403CDE9004203921E2004AA69
:1002100001F01EFB0DB0BDE8104003B070470000B8
:100220002DE9F04389B002F01DF8474EC117D6E919
:100230000032C41A454B61EB02051868444903F0CB
:100240004DFB03F09BFCC117A04271EB050322DAC2
:10025000404C0121208802F0C5FE642002F01CF809
:100260000021208802F0CFFE4FF47A7002F014F8DB
:100270000021208802F0B6FE642002F00DF8FF2174
:10028000208802F0AFFE642002F006F801F0EAFFD9
:10029000C117C6E90001304F304CDFF8D480384632
:1002A00001F08EF84FFA80F9B9F1000F054626DA11
:1002B0002368002B20DD2A4904A801F02AFD0A2228
:1002C0002168684601F09AFD694604A801F0E0FD46
:1002D000244901F0E9FD01682348FFF789FF6846DA
:1002E00001F0CDFC04A801F0CAFC00231F4A2360E2
:1002F000136001221E4B1A7009B0BDE8F08398F814
:100300000030EBB902F0F2FB1A49064604A801F0EE
:1003100000FD0A224946684601F070FD694604A8BE
:1003200001F0B6FD0168304601F00DFF684601F0AE
:10033000A6FC04A801F0A3FC0C4B0F4A1B68D55483
:10034000236801332360AAE7107B00200800002007
:1003500000007042EC8000209C7C0020E88000209F
:100360004C3D0A085C3D0A0828810020AC000020B2
:100370009D0000206C3D0A080D0300202DE9F0418E
:100380003D4B90B01B78002B6AD03C4B1B78002B68
:1003900066D03B4B1D78002D62D000204FF0FF0C43
:1003A0000446864640F25D263649374A0B68374F89
:1003B000B3F5F04F57D182F800E00134B44202F1B6
:1003C0000102F5D100B10B60314E324F3368324932
:1003D000684607EB031701F09CFC2B4904A801F0C9
:1003E00098FC04A9684601F053FD2C4901F05CFD1E
:1003F00005462B4C0A22216808A801F0FFFC28467C
:1004000008A901F045FD274901F04EFD8046264D23
:100410000A2229680CA801F0F1FC0CA9404601F061
:1004200037FD224901F040FD0146384601F0A1FCAC
:100430000CA801F024FC08A801F021FC04A801F09C
:100440001EFC684601F01BFC012233680133336057
:100450002B6801332B60236801332360144B1A701F
:1004600010B0BDE8F08197BFF85C82F800C0107052
:10047000013398BF2846A0E7747B00209E0000202F
:100480009D000020AC000020B00000200D030020E3
:10049000A0000020207B00207B3D0A08823D0A0846
:1004A000A8000020893D0A08707B00206E3E0A08E3
:1004B000987C00202DE9FF41374D384E2B6832687B
:1004C000934244D0364F3A78002A40D01A01354B37
:1004D000DFF800811B7834498DF8003058F802208D
:1004E0003C23096802A802F0CBF8039C7CB1636846
:1004F000013B63605BB9236820469B689847A3680B
:10050000013BA3601BB923682046DB68984702F0D3
:10051000EDFA264901F02AFE02F0E8FA2B681B01E9
:1005200058F8031001F022FE02F0E0FA204901F031
:100530001DFE01F097FE00221E4BC117C3E900010A
:100540002B683A700133042BC8BF13462B601A4B3B
:1005500034681A78DAB92A68144315D10122174D84
:100560001A7002F0C3FA164901F000FE2B785BB155
:1005700002F0BCFA134901F0F9FD134B2C701C700A
:10058000124B1C60124B1C6004B0BDE8F081002CC3
:10059000FAD000221A70F7E7A4000020A000002083
:1005A000747B00209C0000208C000020903D0A08F5
:1005B0005A3E0A08187B00209E000020987C0020EC
:1005C000A03D0A08AB3D0A089D000020707B00207A
:1005D000AC000020207B002070B50024364B88B092
:1005E00002220C211C703548354B00F0B3FB354915
:1005F000354801F08EFB354A3549334802F074FD29
:100600003449354801F085FB304A3149324802F01F
:100610006BFD324D324E28193146103401F079FB12
:10062000502CF8D1294A2F49002002F05DFD02F03C
:1006300037FB2D4C034604F130014FF48062204615
:1006400000F0EAFE294B20462360204A284902F0A8
:100650004BFD284B284C0493284B04AD236000230A
:1006600095E8030002AE86E8030004F10C0292E86C
:10067000030085E8030096E8030082E80300204AAF
:1006800023716261A269A36007921E4A4FF47A71D6
:10069000A2610693CDE900331B4A234604F108000A
:1006A00000F07CFF2846FFF75CFD2046074A17490B
:1006B00002F01AFD08B070BD9C000020787B00207D
:1006C00000810020C43D0A088C0000207800002032
:1006D0007F1C0A08D53D0A087C000020207B0020F2
:1006E000C33D0A08F5000A089C7C0020143F0A0854
:1006F000F3000A08CD000A08CC800020003F0A0859
:10070000DD000A08D9000A0829010A0895010A082B
:1007100010B5394B8AB01888012102F063FC374BC1
:100720000021188802F05EFC02F0BAFA0022344977
:1007300002F0B2FA334800F081FE02F0D7F94FF42C
:10074000165102F0C7F94FF47A7001F0A5FD2E485A
:1007500000F0DEFC002845D102F0C8F92B4901F079
:1007600005FD00222A4C11462046FFF703FDA06834
:1007700040B100236FF000421946CDE900231A462C
:1007800000F024FF234906A801F0C3FA1E4800F038
:10079000D1FA0A22014602A801F01EFB02A906A80E
:1007A00001F076FB01681C48FFF722FD02A801F06A
:1007B00066FA06A801F063FA18491748FFF718FD12
:1007C00017491548FFF714FD01F04CFD154BC117F3
:1007D000C3E9000101F046FD134BC117C3E9000155
:1007E0000AB010BD1149084800F01AFB0022172179
:1007F000054800F025FCB4E70400002000000020BC
:1008000040420F009C7C0020787B0020E33D0A08DA
:10081000CC800020EF3D0A08288100200C3E0A0809
:10082000213E0A08187B0020107B002000C0644491
:10083000FB232DE9F041D4B000AF9948FA1C07F131
:100840005401FB7000F0C4FA002800F02281954D9D
:100850000121288802F0D7FB02F048F9924901F003
:1008600085FC02F043F907F1540101F07FFC07F128
:100870005401381D01F04DFA8C4907F1440001F094
:1008800048FA07F14401381D01F049FB044607F11D
:10089000440001F0F4F9864907F1440001F039FA07
:1008A00007F14401381D01F03AFB064607F1440008
:1008B00001F0E5F9002C40F3E680002E40F3E380E0
:1008C00023460022391D07F1140001F051FB02F00C
:1008D0000DF9796901F04AFC731C2246391D07F1B4
:1008E000240001F045FB02F001F9796A01F03EFCB9
:1008F000FB69002B00F08D80FB6A002B00F08980E3
:100900006C4907F1440001F004FA6B4907F1340027
:1009100001F0FFF907F1340207F1440107F1240067
:1009200001F048FB07F1340001F0A9F907F1440098
:1009300001F0A5F9F96A07F12400013901F0D9FBAA
:100940005E4907F1440001F0E4F9554800F046F92A
:100950000A22014607F1340001F050FA07F1340190
:1009600007F1440001F094FA554901F09DFA01465F
:1009700007F1240001F06CFA07F1340001F07FF96F
:10098000504C07F1440001F07AF94F4907F1240077
:1009900001F062FA4D4B226807F1240103EB0218C3
:1009A00007F1440001F0F4F907F14401404601F079
:1009B000FAF907F1440001F062F923686E46013349
:1009C000042B44DC202107F11400236001F053FACA
:1009D000FA6907F1140002F1080323F00703ADEBF5
:1009E000030D6946002301F073FAFA696C4602F1BF
:1009F000080323F00703ADEB030DE846631E0DF17A
:100A0000FF311444A34224D013F8010F01F8010F61
:100A1000F8E702F06BF82E4901F0A8FB07F124007B
:100A200001F02DF907F1140001F029F928880021BF
:100A300002F0E9FA381D01F022F902F057F82549D1
:100A400001F094FB07F5A877BD46BDE8F0810023CF
:100A5000B8E70132D2B24146114800F0B9FA104865
:100A600000F066F802F042F81B4901F06CFB02F05E
:100A70003DF8414601F067FB02F038F8174901F0F4
:100A800075FBB546CAE702F031F8154901F06EFB77
:100A9000CCE702F02BF8134901F068FBCDE700BF6B
:100AA000787B0020040000203A3E0A08483E0A08ED
:100AB0006E3E0A084A3E0A084D3E0A08503E0A08A1
:100AC000593E0A08A00000205C3E0A08207B002056
:100AD000703E0A08C33D0A08A03E0A08A73E0A085D
:100AE000B53E0A08EB3E0A0808B5044800F051FA82
:100AF00018B1BDE80840FFF79BBE08BD787B002019
:100B000008B5FFF78DFBFFF7EFFFFFF7D3FCFFF70B
:100B100035FCBDE80840FFF7E7BF0120704710B57E
:100B20000446236820465B6898470028F9D010BD2A
:100B30000379032BFCD0012070478171704741710C
:100B40007047C17270470173704741737047837B70
:100B500023EA0203194381737047C0797047007A12
:100B60007047407A7047807A70470020704770B5B0
:100B700004460E4600F0D2FC054600F0CFFC401BB8
:100B8000B04206D2236820465B6898470028F4D01C
:100B900070BD0020FCE770B504460E4600F0BEFCB8
:100BA000054600F0BBFC401BB04204D22379032B66
:100BB000F7D0012070BD0020FCE70000064AFF21AD
:100BC0000260002241710271C172028281814282FF
:100BD00082738282704700BF403F0A08C07B40B2E8
:100BE000704770477047704710B50446806808B179
:100BF00000F0FCFC204610BD10B5044600F090F853
:100C0000014B2046236010BDA03F0A0838B50C4DAB
:100C10002978BFF35B8F11F001040FD12846FFF74D
:100C20004DFA58B12146074800F019FF2846FFF752
:100C30004AFA054A0549034802F056FA014838BD08
:100C4000F0800020F480002078000020E90B0A08E2
:100C500010B50C46FFF7DAFF2146BDE8104000F062
:100C600085BF08B5FFF7D2FFBDE8084000F014BF0C
:100C700010B50446FFF7CAFF2146BDE81040014AFF
:100C800000F048BF40420F0038B5054601F02EFF86
:100C90001A4901F06BFAAC7934B1012C04D0022C62
:100CA00002D0032C18BF0024FFF7B0FF214600F04C
:100CB0000DFF6B79012B0CD1FFF7A8FF002100F08D
:100CC000F7FE2B79013B032B07D8DFE803F00F1168
:100CD0001315FFF79BFF0121F1E70120FFF7C8FF84
:100CE000FFF794FFBDE8384000F0C8BE0220F5E7EA
:100CF0000420F3E70820F1E71020EFE7903F0A080F
:100D0000002302481A461946FFF776BF00810020EB
:100D1000704770474171704781717047017170472A
:100D200030B5034D017105604271837130BD00BF64
:100D3000D03F0A08FB20704710B503790446012B09
:100D400005D00022012100F09CFA0123237101202B
:100D500010BD000038B5044615461A4600F05CFA8E
:100D6000044B20462360002384F81F31FF2365775E
:100D7000A37738BD14400A08C37F032B1BD990F812
:100D80002030C37190F82130037290F82230437202
:100D900090F823308372837933B9C37942799A42C8
:100DA00002D0C379FF2B06D1438A01339BB2438221
:100DB000012380F81F31704710B5044600F0B6FBE0
:100DC000002384F81F31E377BDE8104000F0B6BB84
:100DD0002DE9F041036804465B680F4615469847C5
:100DE0000646C8B1AFB1A5B100F0A0FB8046E37FD5
:100DF0002A78033B9342D8BFE37F3846DCBF043BED
:100E00002B702A7804F1240102F0ECFE404600F039
:100E100095FB2046FFF7D0FF3046BDE8F08100008B
:100E200038B50446084602F0CFFA11A3D3E90023EF
:100E300002F022FB10A3D3E9002302F047FC02F0EA
:100E40002DFD0546C0F307420621204600F019FAA1
:100E5000C5F307220721204600F013FA0821204697
:100E6000EAB200F00EFA012038BD00BFAFF30080F7
:100E70000000000080842E410000000080844E406D
:100E800010B503790446022B05D00122114600F06B
:100E9000F8F90223237110BD38B50446122100F081
:100EA000C9F92379042B0DD110F0A00F0AD0238AA1
:100EB00001339BB223822046BDE83840FF22122135
:100EC00000F0DFB92379042B01D1420609D423793C
:100ED000032BF0D10307EED5A38A01339BB2A38283
:100EE00028E01321204600F0A5F9102105462046F0
:100EF00000F0A0F90D210246204600F0C2F92B4671
:100F0000002104F12002204600F0E3F9FF22122123
:100F10002046E57700F0B5F91A21204600F08AF95D
:100F2000773040B2E0732046FFF726FF94F81F3178
:100F3000002BC0D02046FFF7A3FFBCE7024B186888
:100F400008B1FFF7A9BF70470C810020024B586819
:100F500008B1FFF7A1BF70470C810020024B9868D1
:100F600008B1FFF799BF70470C81002010B50379D5
:100F70000446042B0CD0042305220121037100F048
:100F800080F92046BDE810400022402100F079B9E8
:100F900010BD10B503790446032B05D0FFF7E6FF1B
:100FA00094F81F01C0B210BD0020FCE710B5037912
:100FB0000446032B0BD003220121027100F061F9DA
:100FC00040222046BDE81040114600F05AB910BD3D
:100FD000FB2A70B504460E4615462FD803689B6958
:100FE00098472046FFF74CFF00220D21204600F0D5
:100FF00048F90021E27A204600F043F90021227BE3
:10100000204600F03EF90021627B204600F039F9CD
:101010000021A27B204600F034F92B463246002105
:10102000204600F087F92A1D2221D2B2204600F086
:1010300028F92046FFF7BAFF012070BD0020FCE729
:1010400038B505460C466AB141EAE1720E2AA8BFDE
:101050000E220921013242F07002D2B2BDE83840BE
:1010600000F00FB9172911DC042911DD142910DD56
:1010700007224D21284600F004F9033C64B2621FA8
:1010800062F07F0209212846D2B2E7E71724EFE792
:10109000052404224D21284600F0F3F8EFE738B587
:1010A00005460C460A781D2100F0EBF862781E21F7
:1010B000284600F0E6F82846A2782621BDE8384008
:1010C00000F0DFB8062913B50FD8094B01EB410139
:1010D0005C185A5AA37801A9ADF804208DF806309F
:1010E000FFF7DDFF012002B010BD0020FBE700BFCD
:1010F000F83F0A0838B505460C460A0A202100F0D8
:10110000C0F82846E2B22121BDE8384000F0B9B865
:1011100073B5044600F06CF8054618B9002528465A
:1011200002B070BD802201212046667F00F0A9F840
:101130000A2001F0B1F80121204600F07BF8802858
:10114000ECD10021607F01F04DFFA37FFF2B06D182
:10115000214A1378032BE1D8591C1170A377A27F81
:101160001E4B43F8224032BB00924FF0FF33012266
:101170001B49304601F014FD00220E21204600F0EC
:1011800080F800220F21204600F07BF82046FFF770
:1011900077FE05212046FFF795FF20460821FFF73F
:1011A000A9FF20460F49FFF73BFE002211212046F0
:1011B000FFF746FFB3E7012A4FF0000304D1009385
:1011C00009494FF0FF33D4E7022AA7D10093012247
:1011D0004FF0FF330549CCE7088100200C81002047
:1011E0003D0F0A0800C064444D0F0A085D0F0A084D
:1011F00010B5044680690368DB689847207F0121A9
:1012000001F0F0FE0121207F01F0FDFE642001F0DD
:1012100043F8012010BD000070B504460D46164687
:10122000FFF7CCFC024B20462360A661257770BDFA
:101230006C400A0870B504460D4600F077F9064682
:10124000A06903681B6A9847207F002101F0DBFE3C
:10125000A06905F07F0103681B689847A069002119
:1012600003681B68984705460121207F01F0CBFEEB
:10127000A06903685B6A9847304600F05FF928462A
:1012800070BDF8B5174604460D4600F04FF9064606
:10129000A06903681B6A9847207F002101F0B3FE14
:1012A000A06945F0800103681B6898470546A0695E
:1012B000394603681B6898470121207F01F0A3FE8F
:1012C000A06903685B6A9847304600F037F9284602
:1012D000F8BD2DE9F0410F46154604461E4600F0C4
:1012E00025F98046A0692E4403681B6A98470021AF
:1012F000207F01F088FEA06907F07F0103681B686A
:1013000098470746B54207D0A069002103681B68CB
:10131000984705F8010BF5E70121207F01F073FEE6
:10132000A06903685B6A9847404600F007F93846B1
:10133000BDE8F0812DE9F0410F46154604461E46F2
:1013400000F0F4F88046A0692E4403681B6A9847B1
:101350000021207F01F057FEA06947F0800103685B
:101360001B6898470746B54206D0A06915F8011BCF
:1013700003681B689847F6E70121207F01F043FED0
:10138000A06903685B6A9847404600F0D7F8384682
:10139000BDE8F081806903685B6A1847806903686B
:1013A000DB691847806903689B681847026A436ACB
:1013B000806A13441B1AB3FBF2F002FB1030704733
:1013C00010B5426A836A9A420ED0836AC269DA42D1
:1013D0000AD0D35C826A046A0132B2FBF4F104FBE6
:1013E00011228262184610BD4FF0FF30FBE77047B4
:1013F00010B50446302101F07CFE204610BD426A43
:10140000836A9A4205D0836AC269DA4201D0D05C0D
:1014100070474FF0FF30704770B500254FF47A7673
:10142000C0E90156044E4562C0E90412C0E9063124
:1014300006600262856270BDD4400A084FF4807372
:1014400007B50222CDE900030349044B2C3000F01C
:101450008DF803B05DF804FBBC400A08A7140A0825
:1014600070B50446636A216A0133B3FBF1F201FBF4
:101470001233A06A834213D0656AE669EE420FD048
:10148000A06903685B699847002809DB7055636AA7
:10149000216A0133B3FBF1F201FB12336362E1E72E
:1014A00000F06CF8DEE708B5FFF7DAFF08B5024B8D
:1014B0001B689B68019308BDB001060808B5024B84
:1014C0001B68DB68019308BDB001060808B5024B34
:1014D0001B681B69019308BDB001060808B5024BE3
:1014E0001B689B69019308BDB001060808B5024B53
:1014F0001B68DB69019308BDB001060808B5024B03
:101500001B685B68019308BD9C01060808B5024B87
:101510001B68DB68019308BD9C01060808B5024BF7
:101520001B685B69019308BD9C01060808B5024B66
:101530001B689B6B019308BD9C01060808B5024B14
:101540001B68DB6B019308BD9C01060808B5024BC4
:101550001B689B6D019308BD9C01060808B5024BF2
:101560001B685B6E019308BD9C01060808B5024B21
:101570001B685B68019308BDD001060808B5024BE3
:101580001B68DB68019308BDD001060808B5024B53
:101590001B68DB69019308BDD001060808B5024B42
:1015A0001B681B6A019308BDD001060808B5024BF1
:1015B0001B685B6A019308BDD001060808B5024BA1
:1015C0001B689B6A019308BDD001060808B5024B51
:1015D0001B68DB6A019308BDD001060808B5024B01
:1015E0001B685B6C019308BDD001060808B5024B6F
:1015F0001B689B6C019308BDD001060808B5024B1F
:101600001B68DB6C019308BDD001060808B5024BCE
:101610001B685B6D019308BDD001060808B5024B3D
:101620001B681B6F019308BDD001060808B5024B6B
:101630001B689B69019308BDC401060808B5024BED
:101640001B685B6A019308BDC401060808B5024B1C
:101650001B689B6A019308BDC401060808B5024BCC
:101660001B68DB6A019308BDC401060808B5024B7C
:101670001B681B6B019308BDC401060808B5024B2B
:101680001B685B6B019308BDC401060808B5024BDB
:101690001B689B6B019308BDC401060808B5024B8B
:1016A0001B681B6C019308BDC401060808B5024BFA
:1016B0001B68DB6C019308BDC401060808B5024B2A
:1016C0001B681B6E019308BDAC01060808B5024BF0
:1016D0001B685B6E019308BDAC01060808B5024BA0
:1016E0001B689B6E019308BDAC01060808B5024B50
:1016F0001B68DB6E019308BDAC01060808B5024B00
:101700001B681B6F019308BDAC01060808B5024BAE
:101710001B685B6F019308BDAC01060808B5034B5D
:101720001B68D3F88030019308BD0000AC010608A7
:1017300008B5024B1B681B68019308BDB40106087D
:1017400008B5024B1B685B68019308BDB40106082D
:1017500008B5024B1B689B68019308BDB4010608DD
:1017600008B5024B1B68DB68019308BDB40106088D
:1017700008B5024B1B681B69019308BDB40106083C
:1017800008B5024B1B685B69019308BDB4010608EC
:1017900008B5024B1B68DB69019308BDB40106085C
:1017A00008B5024B1B681B6A019308BDB40106080B
:1017B00008B5024B1B685B6A019308BDB4010608BB
:1017C00008B5024B1B681B68019308BDD8010608C9
:1017D00008B5024B1B685B68019308BDD801060879
:1017E00008B5024B1B681B69019308BDD8010608A8
:1017F00008B5024B1B685B69019308BDD801060858
:1018000008B5024B1B689B69019308BDD801060807
:1018100008B5024B1B68DB69019308BDD8010608B7
:1018200008B5024B1B681B6A019308BDD801060866
:1018300008B5024B1B689B6C019308BDC0010608EC
:1018400008B5024B1B685B6B019308BDA801020839
:1018500008B5024B1B685B6D019308BDA801020827
:1018600008B5024B1B681B68019308BDA40106085C
:1018700008B5024B1B685B68019308BDA40106080C
:1018800008B5024B1B685B69019308BDA4010608FB
:1018900008B5024B1B68DB6C019308BDA401060868
:1018A00008B5024B1B685B6D019308BDA4010608D7
:1018B00008B5024B1B689B6D019308BDA401060887
:1018C00008B5034B1B68D3F89030019308BD0000A6
:1018D000A401060808B5034B1B68D3F89C3001939C
:1018E00008BD0000A401060808B5024B1B685B6830
:1018F000019308BDC801060808B5024B1B689B6828
:10190000019308BDC801060808B5024B1B68DB68D7
:10191000019308BDC801060808B5024B1B681B6986
:10192000019308BDC801060808B5024B1B685B6936
:10193000019308BDC801060808B5024B1B689B69E6
:10194000019308BDC801060808B5024B1B68DB6996
:10195000019308BDC801060808B5024B1B681B6A45
:10196000019308BDC801060808B5024B1B681B6B34
:10197000019308BDC801060808B5024B1B685B6BE4
:10198000019308BDC801060808B5024B1B681B6C13
:10199000019308BDC801060808B5024B1B685B6CC3
:1019A000019308BDC801060808B5024B1B689B6877
:1019B000019308BDCC01060808B5024B1B685B69A2
:1019C000019308BDCC01060808B5024B1B681B6AD1
:1019D000019308BDCC01060808B5024B1B681B6BC0
:1019E000019308BDCC01060808B5024B1B68DB6BF0
:1019F000019308BDCC01060808B5024B1B681B68A3
:101A0000019308BDA001060808B5024B1B685B687E
:101A1000019308BDA001060808B5024B1B689B682E
:101A2000019308BDA001060808B5024B1B68DB6ADC
:101A3000019308BDA001060808B5024B1B681B6B8B
:101A4000019308BDA001060808B5024B1B685B6C3A
:101A5000019308BDA00106088068FFF7D7BD70B5E7
:101A6000002604460D4640F8086FFFF7B7FD2846EC
:101A70002570FFF78DFE2046666070BD10B50446E8
:101A80008068FFF7BBFD20784FF6FF71FFF750FE2F
:101A90002046FFF7E1FF10BD10B504468068FFF750
:101AA000ADFD2078FFF74CFE2046FFF7D5FF10BDB7
:101AB00038B504460D468068FFF7A0FD207829461A
:101AC000FFF746FE2046FFF7C7FF38BD38B504468E
:101AD0000D468068FFF792FD20782946FFF740FE0B
:101AE0002046FFF7B9FF38BD30B500244008186024
:101AF0001868E5B2884206D90134082C02D04008A3
:101B00001860F5E70725024B5B5D137030BD00BF21
:101B1000F8400A08F0B50025044689B0806802FB49
:101B200001F60295FFF76AFD2946142203A82778DB
:101B300002F080F80B232A46384603A9ADF80C3092
:101B4000FFF736FE02AB0DF10702314604988DF81F
:101B50000750FFF7C9FF9DF807102078FFF708FE30
:101B60002046FFF779FF029809B0F0BD08B500786C
:101B7000FFF706FEC0B208BD10B50446006818B1F4
:101B8000FFF742FF0023236010BD10B50446FFF7A6
:101B9000F3FF204610BD00000222002010B5084BC4
:101BA000084C1A60084B2060A080A071A360FFF76A
:101BB0005FFE2046BDE81040044A054901F094BA92
:101BC00024810020188100200000FFFF7800002001
:101BD0008B1B0A0810B5044602F07BF8431E204612
:101BE0002344834206D90278197800F8011B03F8D0
:101BF0000129F6E710BD70B50C46911E222922D8A6
:101C0000254668B1B0FBF2F602FB1600C1B2092806
:101C100094BF30315731C9B2304605F8011BF0E7A7
:101C20002A4630212344934202D902F8011BFAE7E5
:101C30005A1BAB4238BF002200232046AB54FFF7AB
:101C4000C9FF204670BD0020FCE738B5031E0C46D6
:101C500015460DDA2D22B3F1004F0CBF184658423D
:101C600001230A702A461944FFF7C5FF204638BDF4
:101C70000123F9E708B50123FFF7BDFF08BD10B543
:101C800004460068FFF7C0FE204610BD10B50446AC
:101C9000006808B1FFF7B8FE0023C4E901332360F0
:101CA00010BD38B504460D4600680131FFF7B4FE9B
:101CB00010B1C4E90005012038BD10B50368044621
:101CC00023B143688B4201D3012010BD2046FFF7AA
:101CD000E8FF0028F9D0A368002BF5D12268137023
:101CE000F2E770B50E46114604461546FFF7E5FFCC
:101CF00020B92046FFF7CAFF204670BD2A4631466C
:101D00002068A56001F06EFF00212268A368D1540D
:101D1000F2E738B5002304460D46C0E9003383607E
:101D2000037339B1084601F0D4FF29460246204624
:101D3000FFF7D7FF204638BD38B5054600680C468A
:101D400068B16A688B689A4207D3096801F09EFF00
:101D5000A368AB600023A36038BDFFF755FE23687E
:101D60002B6063686B60A368AB600023C4E9003339
:101D7000F1E7884210B50B46044604D0096821B14A
:101D80009A68FFF7AEFF204610BDFFF77FFFFAE726
:101D9000002310B50446C0E9003383600373FFF7E6
:101DA000E8FF204610BD884210B5044601D0FFF779
:101DB000C3FF204610BD38B505460C4649B108465C
:101DC00001F087FF214602462846FFF78AFF284692
:101DD00038BDFFF75BFFFAE71FB50446002308464E
:101DE000C4E90033A360237301A9FFF743FF204632
:101DF00001A9FFF7E0FF204604B010BD10B5002395
:101E000004468AB0C4E90033A3602373084601A9DD
:101E1000FFF71BFF204601A9FFF7CDFF20460AB0C0
:101E200010BD70B505460E4609B9002070BD6AB1F7
:101E3000846814442146FFF740FF0028F5D0286845
:101E4000AB683146184401F021FFAC600120EDE79A
:101E50008A680968FFF7E5BF38B505460C460846AD
:101E600041B101F036FF214602462846BDE8384020
:101E7000FFF7D7BF38BD002307B501228DF8041046
:101E800001A98DF80530FFF7CCFF03B05DF804FB26
:101E900010B58A6809680446FFF7C3FF10B92046E9
:101EA000FFF7F4FE204610BD38B504460D4621B9B3
:101EB0002046FFF7EBFE204638BD084601F009FF3B
:101EC000294602462046FFF7ACFF0028F0D0F2E793
:101ED00058B50E462AB121B18468A34202D300232B
:101EE0000B7058BDE41A013A944228BF14460168A9
:101EF00022461944304601F0F4FE00233355F0E742
:101F000010B58368934207D904680968A01801F0E6
:101F1000FBFE08B1001B10BD4FF0FF30FBE70022B5
:101F2000FFF7EEBF2DE9F04115468A680E46CAB1AB
:101F30008368BBB19A4215D807684FF0FF34384622
:101F4000AB4298BF03F1FF3507EB050840450BD8BE
:101F5000316801F0D9FE38B1C31BAB4298BF1C46B3
:101F60000130F3E74FF0FF342046BDE8F081000078
:101F7000F8B51D469A4288BF13460F46144688BFDF
:101F80002C460B4988BF1D460646FFF7C2FEBA68BD
:101F9000A2420AD33968AA4294BFC4EB0202C4EB3E
:101FA000050230462144FFF79CFE3046F8BD00BFD5
:101FB000C33D0A082DE9F74FD0F808A005460F46A3
:101FC0001646BAF1000F46D0D1F808B0BBF1000FA9
:101FD00041D093680468A3EB0B08B8F1000F0DD152
:101FE0002046396801F090FE0446002833D0B268DC
:101FF000316801F0F7FDB0680444F1E70BDBD1462E
:1020000009682046019101F07FFE40B3019900EB81
:102010000B04C144F5E7A1462046396801F074FE7F
:102020008246A0B1A0EB040B21465A464846D9444B
:1020300001F0D8FD4846B268316801F0D3FDAB68C5
:10204000B268BC68434491445444AB60E4E7214621
:10205000484601F01BFE284603B0BDE8F08FCA4594
:10206000F9D06B684B4523D34FF00009AC68621E72
:10207000002AF0DB39462846FFF754FF041EEADB4E
:10208000BB6829682344AA681944D21A01EB0800E6
:1020900001F0B6FDAB682A684344AB6002F80390D8
:1020A0002868B2683168204401F09CFD621EDFE7B9
:1020B00049462846FFF7F5FD0028D5D1CBE738B5CE
:1020C0000446A36808468B4211D982B111448B4261
:1020D00038BF1A1A2568991A1318A1600A1AE91844
:1020E000284401F08DFD00212268A368D1542046C8
:1020F00038BD8268521AFFF7E2BFF8B506460D46B2
:1021000000248F18BD420CD0336830469B6815F808
:10211000011B9847031E01DB1C44F3E7002C08BF9A
:102120001C462046F8BD70B505460C46084649B128
:1021300001F0CFFD2B68024621462846BDE87040DD
:10214000DB68184770BD08B5FFF7EDFF08BD0368F1
:102150009B68184738B50D210546FFF7F8FF0A219F
:1021600004462846FFF7F3FF204438BD38B505463E
:10217000FFF7D9FF04462846FFF7ECFF204438BD9F
:102180000023012A98BF0A2230B58BB00C468DF887
:10219000243009A92546B4FBF2F404FB1253DBB248
:1021A000092B94BF30333733DBB2AA4201F8013D2B
:1021B000F0D9FFF7B8FF0BB030BD002340681A46D6
:1021C0001946FFF7B1BB38B5046805467CB16368B2
:1021D000013B63605BB9236820469B689847A3680E
:1021E000013BA3601BB923682046DB68984728465B
:1021F00038BD0B68036013B15A6801325A607047EA
:10220000014B024A1A6070472881002000410A08E9
:1022100008B50020FFF7E0FB28B1FFF7CDFB80F009
:102220000100C0B208BD0120FCE710B50020FFF797
:102230008DF90446A0B9FFF713FB012810D1204601
:10224000FFF736FB60B9FFF7E3FF10B9FFF7ACFB10
:10225000F9E7FFF7DDFFBDE810400020FFF776B992
:10226000204610BD1FB5FFF7E0FF10220021684691
:1022700001F0E0FC00216846FFF770F9009805B016
:102280005DF804FB024B1A68024B1A60704700BFEE
:102290000C0000202C8100200021FFF7F1BA10B5BE
:1022A0000446FDF75EFF204610BD13B56C460B4695
:1022B000024603C884E8030093E8030082E80300B1
:1022C00094E8030083E8030002B010BD0023034834
:1022D000034A0449836000F007BF00BF308100203B
:1022E000780000209F220A08014B1860704700BF49
:1022F0001000002008B5134B43B100F0F7FB036852
:102300001B699847002801DDAFF300800E4B43B1F5
:1023100000F0C6FC03681B699847002801DDAFF395
:1023200000800A4B0BB1AFF30080094B43B100F0C2
:102330000DFC03681B699847002801DDAFF300809E
:1023400008BD00BF00000000000000000000000009
:102350000000000008B5FFF7CDFFFFF7DFF8014BE5
:10236000186008BDA88100200248034A0349121AD8
:1023700001F038BC004002400440024080420A089C
:10238000002307B51A466FF077010093FFF7A2FA12
:1023900003B05DF804FB000007B543880A2B08D0A2
:1023A000502B0BD1094B1B684BB103B05DF804EB0C
:1023B0001847FFF7E5FF03B05DF804FB00231A465A
:1023C0006FF077010093FFF785FAF4E7448100206E
:1023D00038B5124C00211248FFF736FB114D236827
:1023E000AB420CBF012200220F4B1A7002D0FFF744
:1023F000BBFF2560FFF782F8044601F023FC0B4B7E
:1024000013B12046AFF3008000210848FFF7ECFA33
:10241000BDE8384000210648FFF752BA00400240AC
:10242000E9220A081E1C279A4081002000000000B3
:1024300099230A0870470020704710B50446102100
:1024400000F057FE204610BD08B5FFF7F6FF08BDA7
:10245000002230B54FF69C74026084808D888C8099
:102460000C68858004600A6030BD10B504460068C1
:10247000FFF7CAFA204610BD38B5C468F4B1237816
:10248000022B03D104F10C00FFF7EFFF656835B1B3
:102490002846FDF766FE1021284600F02AFEA568B2
:1024A00035B12846FDF75DFE1021284600F021FEDB
:1024B0002046BDE83840142100F01BBE38BD73B57E
:1024C0000E46044656F8043B0D4601A831460093DB
:1024D000FFF78FFE009B019A23600023626001A832
:1024E00001930093FFF76FFE3046FFF76CFE28461E
:1024F000082100F0FEFD204602B070BD826810B5D4
:102500000AB900F0FAFDC368BDE81040184708B5E5
:10251000006800F11001FFF7F1FF08BD826810B5F7
:102520000AB900F0EAFDC368BDE81040184708B5D5
:10253000006800F11001FFF7F1FF08BD38B5002376
:102540000446036010200D46FDF7A7FD28B10123C6
:10255000C0E90133024BC56003602060204638BDEE
:1025600028410A0838B5002383608B6804460D466D
:102570002BB102229847EB68E360AB68A36020466A
:1025800038BD0000F0B589B004686846FFF760FF09
:102590004FF00203D4E84F2F002A03D1C4E8413F93
:1025A0000029F7D125D104F10C0569462846FFF72B
:1025B0004FFF0123BFF35B8F63700020BFF35B8F7E
:1025C00004F1080353E8006F43E80002002AF9D140
:1025D000BFF35B8F6EB1FFF75BF978B129463046E8
:1025E000FFF78CFF3046FDF7BCFD1021304600F0B0
:1025F00080FD6846FFF739FF09B0F0BD314602A8FB
:10260000FFF7B0FFE068B4F9105008B101F046FBE5
:1026100006901020ADF81C50FDF73FFD0546E8B1CF
:10262000002787601820FDF738FD044688B1014671
:10263000876002A8FFF739FE049BA268A360059B90
:102640000492E26806A9E36004F110000592FFF726
:10265000FFFE084B2C60EB60074BAB6006A8FFF752
:1026600004FF02A8FDF77DFD002229460348FFF77D
:1026700017F9B7E70F250A08A5270A08252D0A0824
:102680002DE9F0478AB005460C46174698469DF856
:102690004890FFF791F907AE824638BB4FF62E738C
:1026A000059005A93046ADF81830FFF7D1FE14208B
:1026B000FDF7F3FC044648B1022303700123C0E98F
:1026C00001AA437031460C30FFF7C2FE284621466E
:1026D00040F8044BFFF732FF3046FFF7C6FE05A86F
:1026E000FFF7C3FE28460AB0BDE8F0870C234FF081
:1026F000000A1420CDE908AA0793FDF7CEFC014695
:1027000028B1C0E901AA80F800A080F801A004A8BF
:102710000391FFF713FF224B08200893FDF7BDFC40
:10272000824628B1039B04A940F8043BFFF761FDF2
:1027300042463946204600965FFA89F3CDF824A038
:10274000FFF742F9B8B9039B5B7803F0FF0293B936
:102750004FF69C7305A903A80592ADF81830FFF752
:1027600011FF05A8FFF781FE05A80999FFF7A7FE4D
:1027700006A8FFF728FD039B04A906A80593FFF709
:1027800038FD059B069A2B6000236A6006A8069315
:102790000593FFF718FD04A8FFF715FDA2E700BF9A
:1027A00069280A08022AF8B5054607D0032A18D076
:1027B000012A01D10B6803600020F8BD18200E68C3
:1027C000FDF76BFC044650B13146FFF7CBFE306994
:1027D000B6F9147008B101F061FA2061A7822C608B
:1027E000EAE70468002CE7D004F11000FFF73DFE93
:1027F0002046FDF7B6FC1821204600F07AFCDBE706
:1028000038B5002383608B6804460D462BB1022245
:102810009847EB68E360AB68A360204638BD022AA6
:1028200070B5044607D0032A12D0012A01D10B68E3
:102830000360002070BD14200E68FDF72EFC0546D5
:1028400020B13146FFF7DCFF337C2B742560F0E7C5
:102850000468002CEDD02046FDF783FC14212046AF
:1028600000F047FCE5E70000F0B5044689B00D46EE
:1028700001A81146FFF723FEA4B124B21DB12846DA
:1028800001F00CFA054601A803A90395ADF8104024
:10289000FFF778FE03A8FFF7E8FD02A8FFF793FC17
:1028A00009B0F0BD0123019DD5E84F2F002A03D1C7
:1028B000C5E8413F0029F7D1EFD12B73BFF35B8F00
:1028C0006B70BFF35B8F2B1D53E8006F43E8004232
:1028D000002AF9D1BFF35B8F002EDED02046FEF731
:1028E000D7FF074660B1304605F10C01FFF716FE31
:1028F0003046FDF736FC1021304600F0FAFBCCE7FD
:10290000314603A8FFF77CFF2B7B10208DF81C308D
:10291000FDF7C3FB0546D0B187601420FDF7BDFB72
:10292000044678B10146876003A8FFF7BEFC059B0B
:10293000A268A360069B0592E268E3609DF81C30E4
:1029400006922374064B2C60EB60064BAB6003A829
:10295000FDF707FC002229460348FEF7A1FFC7E761
:102960002F250A081F280A08252D0A08704710B5C8
:102970000446182100F0BDFB204610BDF8B50E46F8
:10298000002400F10807051D17F8011D0A22304632
:10299000FFF7F6FBAF42044401D12046F8BD002CFE
:1029A000F2D02E213046FFF7D2FB0444ECE70000C2
:1029B00010B50446044B1122002140F8043B01F0FD
:1029C00039F9204610BD00BF44410A080346074AB2
:1029D00010B543F8042B01F1100251F8044B914259
:1029E00043F8044BF9D10A781A7010BD44410A0823
:1029F000024AC0E9002104220275704744410A08D6
:102A000010B59DF8084044EA0324042344EA024434
:102A100044EA01644460037510BD000037B5044DFD
:102A200005609DF818500095FFF7EAFF03B030BD30
:102A300044410A0841747047704708B50021007C82
:102A4000FEF7DEFE40EAE07008BD08B50121007C1B
:102A5000FEF7D6FE40EAE07008BD08B5007CFEF740
:102A6000C7FE20EAE07008BD08B5007CFEF7B8FE9E
:102A700020EAE07008BD38B50446007C0D46FEF73C
:102A8000B7FE002801DC607C28B12946207CFEF7D7
:102A9000BFFE20EAE07038BD007CFEF7C1BE10B575
:102AA0000446142100F025FB204610BD10B54FF45C
:102AB0007A73044608460021C4E90113044B2074CC
:102AC0002360012311466374FEF77AFE204610BD91
:102AD00058410A080022007CFEF77ABE10B5044671
:102AE0001422002101F0A6F8204610BD30B50F4D8C
:102AF00087B001A8FFF7F2FF2978BFF35B8F11F0D1
:102B0000010410D12846FDF7D9FA60B1214601AA87
:102B10000748FFF7CBFF2846FDF7D5FA054A0649D7
:102B2000034800F0E1FA024807B030BD48810020B8
:102B30005081002078000020392A0A0810B5044688
:102B40001422002101F076F8204610BD10B50F4C7C
:102B500086B001A8FFF7F2FF2378BFF35B8FDB0796
:102B600010D42046FDF7AAFA60B1012101AA084855
:102B7000FFF79CFF2046FDF7A6FA064A06490448DF
:102B800000F0B2FA024806B010BD00BF4C81002030
:102B90006481002078000020392A0A0800470000DC
:102BA0002DE9FF4100241D460F4690460646FEF7DC
:102BB0009DFC0423A5428DF80C30A8BF9DF8283059
:102BC000ADF80D408DF80F40A4BF03AC8DF80E306A
:102BD0003A464346304606490094A8BF8DF80D504A
:102BE000FEF77CFCB0FA80F0400904B0BDE8F0814B
:102BF0009D2B0A0870474174704708B5007CFEF7AA
:102C00004DFD20EAE07008BD08B5007CFEF71EFD12
:102C100020EAE07008BD08B5007CFEF727FD40EA19
:102C2000E07008BD08B5007CFEF718FD40EAE070D2
:102C300008BD007CFEF722BD70B5467C04460D46FB
:102C40002EB12946207CBDE87040FEF7F7BC007C21
:102C5000FEF724FD0028F4DC304670BD10B50446B4
:102C6000142100F046FA204610BD00004FF0000C81
:102C700010B50446084611464FF47A72C4E901C201
:102C8000044A20742260012262741A46FEF7CEFCC8
:102C9000204610BD88410A080023007CFEF706BDCF
:102CA000F8B51A4C26684EB98420FDF7F6F90546AA
:102CB00018B18422314600F0BDFF2560144D2F6805
:102CC0004FB98420FDF7E9F9064618B18422394648
:102CD00000F0B0FF2E600F4F3978BFF35B8F11F01B
:102CE000010611D13846FDF7E9F968B1314622688D
:102CF0002B680948FFF7BAFF3846FDF7E4F9074AA1
:102D00000749054800F0F0F90348F8BD7C81002030
:102D100080810020788100208481002078000020BC
:102D2000F52B0A0810B5836804460BB900F0E5F9E5
:102D3000C3689847A3681BB10322214620469847E1
:102D40002046BDE81040102100F0D3B97047F8B517
:102D5000064615460C468F18BC4206D033683046EE
:102D60009B6814F8011B9847F6E72846F8BD002237
:102D7000007CFEF7A3BC0021007CFEF7A7BC00216D
:102D8000007CFEF7ABBC0021007CFEF7AFBC00214D
:102D9000007CFEF7B3BC10B50446142100F0A9F97D
:102DA000204610BD10B54FF47A7304460846002142
:102DB000C4E90113034B114623602074FEF7AEFCF7
:102DC000204610BDB8410A08002240681146FEF7AF
:102DD000A3BDF0B5154689B011220E460446002168
:102DE00003A800F027FF284600F073FF002781B2F8
:102DF00073682846009703AAFEF71AFD30B13946DA
:102E00002046FFF7F5FD204609B0F0BD204603A996
:102E1000FFF7DCFDF7E7002240681146FEF79CBD96
:102E2000002240681146FEF7A7BD00224068FEF769
:102E30009BBD0022406881F00101FEF785BD0023A3
:102E400040681A461946FEF777BD002240681146D1
:102E5000FEF752BD002202214068FEF755BD002357
:102E600040681A46FEF740BD0422024B5A60024AEF
:102E70001A60704798810020E0410A0800234068EA
:102E80001A46FEF731BD002202214068FEF73CBD24
:102E9000002240681146FEF72FBD0022406811460F
:102EA000FEF73ABD002340681A461946FEF73CBDBE
:102EB000002340681A461946FEF73EBD00214068CF
:102EC000FEF762BD00214068FEF766BD0022406843
:102ED00081F00101FEF738BD00224068FEF744BDD5
:102EE000002240681146FEF747BD002240681146A7
:102EF000FEF732BD70B515468EB0044608A8FFF740
:102F000057FD1122002103A800F094FE0026284658
:102F100000F0DFFE0A4B009681B25B68284603AAE8
:102F2000FEF786FC30B131462046FFF761FD2046B2
:102F30000EB070BD204603A9FFF748FDF7E700BFBC
:102F400098810020024B034A1A6000225A607047A1
:102F5000A08100201C420A08172870B5044601D938
:102F6000002070BDA0F10D03022B0BD9012826D83B
:102F700000F092F80021007CFEF7C8FB80F0010011
:102F8000C0B2EEE7134E3178BFF35B8F11F001054D
:102F90000FD13046FDF792F858B129460E48FEF79A
:102FA0005EFD3046FDF78FF80C4A0D490A4800F0E7
:102FB0009BF8094B1878FEF7F3FB0028D0D1123CA0
:102FC000012C05D8FFF76CFE007CFEF75FFBD5E710
:102FD0000120C6E7F0800020F48000207800002067
:102FE000E90B0A08172838B504460D460AD8FF2908
:102FF00008D0FFF7B1FF28B129462046BDE8384088
:10300000FEF754BA38BD38B504460D46FEF756FAF9
:10301000FF2810D0062804D84D2323FA00F0C30758
:1030200009D42046FFF798FF28B129462046BDE87D
:103030003840FEF74BBA38BD002313B5074C1A468B
:10304000194620460093FFF7E9FC2046044A05494B
:1030500002B0BDE8104000F047B800BFAC810020CE
:10306000780000206D290A08002370B520254380D0
:103070001423084E044603803146856005612846C6
:1030800000F039F831466060284600F034F8E0601E
:10309000204670BD50420A0830B50F4D87B02978E0
:1030A000BFF35B8F11F0010413D12846FDF706F83A
:1030B00078B101A8FFF7D8FF214601AA0748FFF71A
:1030C00071FE2846FCF7FFFF054A0649034800F059
:1030D0000BF8024807B030BDC4810020C881002031
:1030E000780000204D2D0A080B460146184600F0D6
:1030F0006BBDFCF7D6BFFCF7D2BF08B5FEF794FC5A
:1031000081F0004102E000BF83F0004330B54FEA98
:1031100041044FEA430594EA050F08BF90EA020F05
:103120001FBF54EA000C55EA020C7FEA645C7FEA98
:10313000655C00F0E2804FEA5454D4EB5555B8BFBB
:103140006D420CDD2C4480EA020281EA030382EA2C
:10315000000083EA010180EA020281EA0303362DBE
:1031600088BF30BD11F0004F4FEA01314FF4801C91
:103170004CEA113102D0404261EB410113F0004FA3
:103180004FEA03334CEA133302D0524263EB43035A
:1031900094EA050F00F0A780A4F10104D5F1200EF8
:1031A0000DDB02FA0EFC22FA05F2801841F1000153
:1031B00003FA0EF2801843FA05F359410EE0A5F127
:1031C00020050EF1200E012A03FA0EFC28BF4CF058
:1031D000020C43FA05F3C01851EBE37101F000450E
:1031E00007D54FF0000EDCF1000C7EEB00006EEB1B
:1031F0000101B1F5801F1BD3B1F5001F0CD34908A5
:103200005FEA30004FEA3C0C04F101044FEA4452FB
:1032100012F5800F80F09A80BCF1004F08BF5FEA82
:10322000500C50F1000041EB045141EA050130BD62
:103230005FEA4C0C404141EB0101013C28BFB1F574
:10324000801FE9D291F0000F04BF01460020B1FABF
:1032500081F308BF2033A3F10B03B3F120020CDA92
:103260000C3208DD02F1140CC2F10C0201FA0CF070
:1032700021FA02F10CE002F11402D8BFC2F1200CD5
:1032800001FA02F120FA0CFCDCBF41EA0C0190408B
:10329000E41AA2BF01EB0451294330BD6FEA0404D4
:1032A0001F3C1CDA0C340EDC04F11404C4F12002BF
:1032B00020FA04F001FA02F340EA030021FA04F3D1
:1032C00045EA030130BDC4F10C04C4F1200220FA28
:1032D00002F001FA04F340EA0300294630BD21FA66
:1032E00004F0294630BD94F0000F83F4801306BF2C
:1032F00081F480110134013D4EE77FEA645C18BF20
:103300007FEA655C29D094EA050F08BF90EA020FB6
:1033100005D054EA000C04BF1946104630BD91EAAE
:10332000030F1EBF0021002030BD5FEA545C05D1B1
:103330004000494128BF41F0004130BD14F58004F0
:103340003CBF01F5801130BD01F0004545F0FE4164
:1033500041F470014FF0000030BD7FEA645C1ABF99
:10336000194610467FEA655C1CBF0B46024650EAD0
:10337000013406BF52EA033591EA030F41F40021FC
:1033800030BD00BF90F0000F04BF0021704730B582
:103390004FF4806404F132044FF000054FF0000157
:1033A00050E700BF90F0000F04BF0021704730B518
:1033B0004FF4806404F1320410F0004548BF4042ED
:1033C0004FF000013EE700BF42004FEAE2014FEA42
:1033D00031014FEA02701FBF12F07F4393F07F4F1D
:1033E00081F06051704732F07F4208BF704793F020
:1033F0007F4F04BF41F40021704730B54FF4607433
:1034000001F0004521F000411CE700BF50EA010235
:1034100008BF704730B54FF000050AE050EA0102DE
:1034200008BF704730B511F0004502D5404261EB4E
:1034300041014FF4806404F132045FEA915C3FF48F
:10344000D8AE4FF003025FEADC0C18BF03325FEA2C
:10345000DC0C18BF033202EBDC02C2F1200300FADD
:1034600003FC20FA02F001FA03FE40EA0E0021FA02
:1034700002F11444BDE600BF70B54FF0FF0C4CF4F0
:10348000E06C1CEA11541DBF1CEA135594EA0C0FA2
:1034900095EA0C0F00F0DEF82C4481EA030621EADD
:1034A0004C5123EA4C5350EA013518BF52EA033518
:1034B00041F4801143F4801338D0A0FB02CE4FF0CA
:1034C0000005E1FB02E506F00042E0FB03E54FF0FA
:1034D0000006E1FB03569CF0000F18BF4EF0010EF2
:1034E000A4F1FF04B6F5007F64F5407404D25FEAEE
:1034F0004E0E6D4146EB060642EAC62141EA5551A1
:103500004FEAC52040EA5E504FEACE2EB4F1FD0CE2
:1035100088BFBCF5E06F1ED8BEF1004F08BF5FEA60
:10352000500E50F1000041EB045170BD06F0004612
:1035300046EA010140EA020081EA0301B4EB5C04BF
:10354000C2BFD4EB0C0541EA045170BD41F48011B7
:103550004FF0000E013C00F3AB8014F1360FDEBFDC
:10356000002001F0004170BDC4F10004203C35DAB8
:103570000C341BDC04F11404C4F1200500FA05F33B
:1035800020FA04F001FA05F240EA020001F00042DC
:1035900021F0004110EBD37021FA04F642EB060152
:1035A0005EEA430E08BF20EAD37070BDC4F10C047C
:1035B000C4F1200500FA04F320FA05F001FA04F240
:1035C00040EA020001F0004110EBD37041F100012C
:1035D0005EEA430E08BF20EAD37070BDC4F1200537
:1035E00000FA05F24EEA020E20FA04F301FA05F29F
:1035F00043EA020321FA04F001F0004121FA04F247
:1036000020EA020000EBD3705EEA430E08BF20EA16
:10361000D37070BD94F0000F0FD101F00046400050
:1036200041EB010111F4801F08BF013CF7D041EAD2
:10363000060195F0000F18BF704703F000465200D6
:1036400043EB030313F4801F08BF013DF7D043EAA7
:103650000603704794EA0C0F0CEA135518BF95EA5D
:103660000C0F0CD050EA410618BF52EA4306D1D1E4
:1036700081EA030101F000414FF0000070BD50EA03
:10368000410606BF1046194652EA430619D094EA8D
:103690000C0F02D150EA013613D195EA0C0F05D177
:1036A00052EA03361CBF104619460AD181EA0301CB
:1036B00001F0004141F0FE4141F470014FF0000083
:1036C00070BD41F0FE4141F4780170BD70B54FF01E
:1036D000FF0C4CF4E06C1CEA11541DBF1CEA13559E
:1036E00094EA0C0F95EA0C0F00F0A7F8A4EB050480
:1036F00081EA030E52EA03354FEA013100F0888077
:103700004FEA03334FF0805545EA131343EA12633F
:103710004FEA022245EA111545EA10654FEA0026F4
:103720000EF000419D4208BF964244F1FD0404F5AD
:10373000407402D25B084FEA3202B61A65EB030509
:103740005B084FEA32024FF480104FF4002CB6EBC6
:10375000020E75EB030E22BFB61A754640EA0C0046
:103760005B084FEA3202B6EB020E75EB030E22BF86
:10377000B61A754640EA5C005B084FEA3202B6EBC7
:10378000020E75EB030E22BFB61A754640EA9C0086
:103790005B084FEA3202B6EB020E75EB030E22BF56
:1037A000B61A754640EADC0055EA060E18D04FEA14
:1037B000051545EA16754FEA06164FEAC30343EAB4
:1037C00052734FEAC2025FEA1C1CC0D111F4801F81
:1037D0000BD141EA00014FF000004FF0004CB6E77A
:1037E00011F4801F04BF01430020B4F1FD0C88BF19
:1037F000BCF5E06F3FF6AFAEB5EB030C04BFB6EB24
:10380000020C5FEA500C50F1000041EB045170BD16
:103810000EF0004E4EEA113114EB5C04C2BFD4EB43
:103820000C0541EA045170BD41F480114FF0000EC7
:10383000013C90E645EA060E8DE60CEA135594EA43
:103840000C0F08BF95EA0C0F3FF43BAF94EA0C0F46
:103850000AD150EA01347FF434AF95EA0C0F7FF4BB
:1038600025AF104619462CE795EA0C0F06D152EA0F
:1038700003353FF4FDAE1046194622E750EA4106F3
:1038800018BF52EA43067FF4C5AE50EA41047FF404
:103890000DAF52EA43057FF4EBAE12E74A0011D2B6
:1038A00012F5001211D20DD56FF47873B3EB62529A
:1038B0000ED44FEAC12343F0004343EA505323FAA6
:1038C00002F070474FF00000704750EA013002D11B
:1038D0004FF0FF3070474FF0000070474FF0FF0C83
:1038E0001CEAD0521EBF1CEAD15392EA0C0F93EA95
:1038F0000C0F6FD01A4480EA010C400218BF5FEA37
:1039000041211ED04FF0006343EA501043EA5111A9
:10391000A0FB01310CF00040B1F5000F3EBF4900A3
:1039200041EAD3715B0040EA010062F17F02FD2AA7
:103930001DD8B3F1004F40EBC25008BF20F001008A
:10394000704790F0000F0CF0004C08BF49024CEAA1
:10395000502040EA51207F3AC2BFD2F1FF0340EA33
:10396000C250704740F400004FF00003013A5DDCA4
:1039700012F1190FDCBF00F000407047C2F10002E5
:10398000410021FA02F1C2F1200200FA02FC5FEAD2
:10399000310040F1000053EA4C0308BF20EADC701C
:1039A000704792F0000F00F0004C02BF400010F48E
:1039B000000F013AF9D040EA0C0093F0000F01F03B
:1039C000004C02BF490011F4000F013BF9D041EA5D
:1039D0000C018FE70CEAD15392EA0C0F18BF93EA5F
:1039E0000C0F0AD030F0004C18BF31F0004CD8D189
:1039F00080EA010000F00040704790F0000F17BF10
:103A000090F0004F084691F0000F91F0004F14D055
:103A100092EA0C0F01D142020FD193EA0C0F03D1AD
:103A20004B0218BF084608D180EA010000F00040B0
:103A300040F0FE4040F40000704740F0FE4040F48B
:103A4000400070474FF0FF0C1CEAD0521EBF1CEA2A
:103A5000D15392EA0C0F93EA0C0F69D0A2EB030248
:103A600080EA010C49024FEA402037D04FF08053E2
:103A700043EA111143EA10130CF000408B4238BFA7
:103A80005B0042F17D024FF4000C8B4224BF5B1AB5
:103A900040EA0C00B3EB510F24BFA3EB510340EA03
:103AA0005C00B3EB910F24BFA3EB910340EA9C00B1
:103AB000B3EBD10F24BFA3EBD10340EADC001B0121
:103AC00018BF5FEA1C1CE0D1FD2A3FF650AF8B42C5
:103AD00040EBC25008BF20F0010070470CF0004CD2
:103AE0004CEA50207F32C2BFD2F1FF0340EAC250FD
:103AF000704740F400004FF00003013A37E792F0BE
:103B0000000F00F0004C02BF400010F4000F013A1B
:103B1000F9D040EA0C0093F0000F01F0004C02BF16
:103B2000490011F4000F013BF9D041EA0C0195E77F
:103B30000CEAD15392EA0C0F08D142027FF47DAF18
:103B400093EA0C0F7FF470AF084676E793EA0C0F08
:103B500004D14B023FF44CAF08466EE730F0004C06
:103B600018BF31F0004CCAD130F000427FF45CAF96
:103B700031F000437FF43CAF5FE700BF4FEA400203
:103B8000B2F1FE4F0FD34FF09E03B3EB12620DD98B
:103B90004FEA002343F0004310F0004F23FA02F0F5
:103BA00018BF404270474FF00000704712F1610F9C
:103BB00001D1420205D110F0004008BF6FF0004073
:103BC00070474FF00000704710B504460448134694
:103BD00020B10A4602202146AFF3008010BD00BF8D
:103BE000000000000A44914200F1FF3300D1704709
:103BF00010B511F8014B914203F8014FF9D110BDF6
:103C0000884210B501EB020402D98442234607D84A
:103C1000431EA14208D011F8012B03F8012FF8E749
:103C2000014602448A4200D110BD13F8014D02F84A
:103C3000014DF7E703460244934200D1704703F871
:103C4000011BF9E738B50D4B04461D68AB6B7BB91A
:103C50001820FDF7D1FE0A4A0A4BA863C0E90023E9
:103C6000094B012283600B2383810023C0E90423D5
:103C70000022AB6B1C615A6138BD00BF10000020F0
:103C80000E33CDAB34126DE6ECDE0500034611F8C1
:103C9000012B03F8012B002AF9D17047024B014692
:103CA000186800F003B800BF1000002070B504468B
:103CB00008460D4600F00DF8461C31462046FDF73B
:103CC000BBFE044618B132462946FFF78BFF20465B
:103CD00070BD034613F8012B002AFBD1181A0138D6
:103CE0007047034610B5013932B111F8014F013A5E
:103CF00003F8014B002CF7D100211A44934200D164
:103D000010BD03F8011BF9E7F0B50C7864B1034668
:103D10001A7818465E1C0AB9104605E0944208D18C
:103D20000D4615F8012F02B9F0BD13F8017F974237
:103D3000F7D03346ECE7000021000A0861000A08CA
:103D400089000A088D000A080000000052656369B6
:103D50006576656420696D6167652000206279740D
:103D60006573206C617267652E2F6E005265636902
:103D700065766564206279746520007B22496D2236
:103D80003A002C224969223A002C224970223A003A
:103D900053656E7420746F20636C6F75643A2000F5
:103DA0000A53454E5420414C4C0A000A53454E5488
:103DB00020414C4C20494D414745204D45535341EE
:103DC00047450A004F776C4E6F64655F5379737493
:103DD000656D303100496D675F55706C6F61645F70
:103DE000303100696E6974206661696C6564004DEC
:103DF0006178206C6F7261206D65737361676520F7
:103E00006C656E6774682069733A200046696E6954
:103E100073686564205365747570206C6F6F702EC5
:103E2000002A2A2A2A2A2A2A2A2A2A2A2A2A2A2A1C
:103E30002A2A2A2A2A2A2A2A2A00676F74207265C7
:103E400071756573743A20007B0044760044640009
:103E50002C225369223A2022002220002C22447670
:103E6000223A2022536572766572303122207D001D
:103E70004944206F72206D657373616765206E6FB2
:103E80007420666F756E642E204E6F207265706CA4
:103E900079206D6573736167652073656E742E009C
:103EA00053656E74202D002D206173206120726592
:103EB000706C792E004E6F207374617274206F7273
:103EC00020656E6420627261636B657420666F7535
:103ED0006E642C206E6F207265706C79206D657336
:103EE000736167652073656E742E0072656376205A
:103EF0006661696C6564000000000000000000005D
:103F000095010A08DD010A081D010A0800000000E9
:103F100000000000F3000A080D010A08A5130A08B2
:103F2000FB200A08AD130A08C1130A08FF130A0888
:103F30009D130A0895130A08000000000000000005
:103F40001B0B0A08A9000A08A9000A08A9000A0808
:103F5000A9000A081F0B0A08310B0A08970B0A0868
:103F60006F0B0A083F0B0A08430B0A08470B0A08A5
:103F70004B0B0A084F0B0A083B0B0A085B0B0A089D
:103F80005F0B0A08630B0A08670B0A086B0B0A0829
:103F900048455245000000000000000000000000FD
:103FA000510C0A08E70B0A08E70B0A08890C0A08F3
:103FB000630C0A08150D0A08190D0A081D0D0A08D8
:103FC000E30B0A08E50B0A080000000000000000EF
:103FD000A9000A08110D0A08130D0A08A9000A0809
:103FE000A9000A08150D0A08190D0A081D0D0A086E
:103FF000E30B0A08E50B0A087274009274004894F7
:104000000078C40078940092940000000000000042
:104010000000000011110A08930F0A08D10D0A08C8
:10402000D10F0A08350D0A081F0B0A08310B0A08C0
:10403000970B0A086F0B0A083F0B0A08430B0A0884
:10404000470B0A084B0B0A084F0B0A083B0B0A08E0
:104050005B0B0A085F0B0A08630B0A08670B0A0868
:10406000390D0A080000000000000000F1110A08E4
:10407000A9000A08A9000A08A9000A08A9000A0854
:104080001F0B0A08310B0A08970B0A086F0B0A0866
:104090003F0B0A08430B0A08470B0A084B0B0A0898
:1040A0004F0B0A083B0B0A085B0B0A085F0B0A0858
:1040B000630B0A08670B0A086B0B0A0873657269C1
:1040C000616C4275666665720000000000000000C9
:1040D00000000000EF130A08F1130A08A5130A08EC
:1040E000FB200A08AD130A08C1130A08FF130A08C7
:1040F0009D130A0895130A08000810182028303864
:104100006170700025592D256D2D25645425483A80
:10411000254D3A2553257A0061736374696D6500F6
:10412000000000000000000035240A083B240A08B3
:1041300079240A0849240A0837240A0800000000E4
:10414000000000007D290A086D290A086F290A0865
:104150000000000000000000392A0A089F2A0A080F
:10416000772A0A08FB200A08692A0A083B2A0A0853
:104170004B2A0A08992A0A085B2A0A08352A0A08DB
:104180000000000000000000F52B0A085D2C0A0862
:10419000392C0A08FB200A08092C0A08252C0A08D1
:1041A000172C0A08332C0A08F72B0A08FB2B0A08DD
:1041B00000000000000000004D2D0A08972D0A089D
:1041C0006F2D0A084F2D0A08772D0A087F2D0A083F
:1041D000872D0A088F2D0A0800000000000000004B
:1041E0005F2E0A08552E0A084B2E0A08C92D0A0808
:1041F000BB210A083F2E0A08BD2E0A08C52E0A0850
:10420000332E0A082B2E0A08212E0A08172E0A0818
:10421000D32D0A0800000000000000007D2E0A08CF
:10422000872E0A08912E0A089B2E0A08A52E0A0836
:10423000B12E0A08BD2E0A08C52E0A08CD2E0A087E
:10424000D92E0A08E12E0A08EB2E0A08F52E0A08D4
:1042500000000000D9050A08010D0A08991B0A0888
:1042600001220A0885220A08CD220A08692E0A08B6
:10427000452F0A0839300A0800000000000000003D
:04428000000000003A
:1042840001000000070000000000204118410A0856
:1042940014000020000000000000000000000000E6
:1042A400000000000000000000000000000000000A
:1042B40000000000000000000000000000000000FA
:1042C40000000000000000000000000000000000EA
:1042D40000000000000000000000000000000000DA
:1042E40000000000000000000000000000000000CA
:0442F40000000000C6
:1042F800FFFFFFFF00000102030405060708090A83
:104308000B0C0D0E0F101112131415161718191A7D
:084318001B1C1D1E1F202800C4
:044320007856341285
:04000005080A0020C5
:00000001FF
