:02000004080AE8
:1000000000000A08B83A0A080000060006000501C8
:080010000402350800000000A5
:04001800B4350A08E9
:1000200009480A4908B5884205D0094A824202D0E7
:10003000121A03F015FA0748074A0021121A03F0B2
:1000400037FA064808BD00BF00000020243A0A081D
:100050006C0000207000002004090020040900202A
:1000600070B501F06DFF0025054E064CA41BA408D9
:10007000A54200D170BD56F8043B98470135F7E71B
:10008000F8390A081C3A0A0800F0B4B908B500F0BB
:100090008DFBBDE8084001F015BF01F065BA01F025
:1000A00063BA01F069BA000000210C2008B5024AC9
:1000B00001F07EF9FEE700BF9D100A080078B0FA53
:1000C00080F0400970470123037070470122014B03
:1000D0001A707047D806002003681847012A03D019
:1000E000022A03D0002070470160FBE70B68036021
:1000F000F8E7000038B56324034D05EB041001F068
:1001000076FB013CF9D238BD98000020436913B159
:1001100083690C301847704713B500210446084620
:1001200000F0F4FF0023204601A9019301F006F836
:10013000019C0CB1012323710021012000F0E6FF96
:100140002CB1236820469B6898470023237102B096
:1001500010BD10B58368044613B1032201469847C9
:10016000204610BD07B58068002338B1CDE90013E3
:10017000022100F0EBFFB0FA80F0400903B05DF817
:1001800004FB000038B5104B044603608368A3B13C
:100190006FF000410022FFF7E5FF0021A06800F0AA
:1001A000FDFF237903F0FF0513B100F0A7FFF8E787
:1001B0002946A06800F0BAFFA56004F10C00FFF723
:1001C000C8FF204638BD00BF10370A0810B50446E6
:1001D000FFF7D8FF20461C2102F03FFD204610BD4E
:1001E0000EB410B50023016820208DB00FAA52F87C
:1001F000044BCDE90403CDE9004203921E2004AA7A
:1002000001F0DEF80DB0BDE8104003B0704700000B
:100210002DE9FF41304D314E2B683268934244D076
:100220002F4F3A78002A40D01A012E4BDFF8D080A9
:100230001B782D498DF8003058F802203C230968BE
:1002400002A801F0D5FF039C7CB16368013B6360A9
:100250005BB9236820469B689847A368013BA3606D
:100260001BB923682046DB68984702F0F7F91F495D
:1002700001F034FD02F0F2F92B681B0158F803106D
:1002800001F02CFD02F0EAF9194901F027FD01F017
:10029000A1FD0022174BC117C3E900012B683A707A
:1002A0000133632BC8BF13462B60134B3268197898
:1002B00061B929680A4306D101221A7002F0CEF909
:1002C0000E4901F00BFD04B0BDE8F081002AFAD020
:1002D00000221A70F7E700BF8C0000208800002081
:1002E000D80600208400002074000020C8350A08C9
:1002F0006B360A089000002085000020D8350A08D7
:100300009800002070B50024294B022288B00C21EF
:100310001C702848284B00F06FFB2849284801F042
:10032000B0FA284A2849264802F092FC274D284E68
:1003300028193146103401F0A4FAB4F5C86FF7D18A
:10034000204A2449002002F083FC234B234C0493D1
:10035000234B04AD2360002395E8030002AE86E83A
:10036000030004F10C0292E8030085E8030096E81C
:10037000030082E803001B4A23716261A269A36043
:100380000792194A4FF47A71A2610693CDE90033BE
:10039000164A234604F1080000F0C0FE2846FFF785
:1003A000D8FE2046074A124902F052FC08B070BD40
:1003B00084000020DC06002028080020E3350A081D
:1003C0007400002070000020EF170A089800002039
:1003D000E2350A08F5000A08CD000A08FC070020EB
:1003E00010370A08DD000A08D9000A0819010A08AE
:1003F00085010A0810B52F4B8AB01888012102F038
:10040000A5FB02F02BF94FF4165102F01BF94FF443
:100410007A7001F0F9FC284800F0CEFC00283FD1AA
:1004200002F01CF9254901F059FC0022244C114628
:100430002046FFF797FEA06840B100236FF000420E
:100440001946CDE900231A4600F080FE1D4906A892
:1004500001F017FA184800F0BFFA0A22014602A874
:1004600001F072FA02A906A801F0CAFA016816485A
:10047000FFF7B6FE02A801F0BAF906A801F0B7F935
:1004800012491148FFF7ACFE11490F48FFF7A8FECB
:1004900001F0A0FC0F4BC117C3E900010AB010BD69
:1004A0000D49054800F010FB00221721024800F01A
:1004B0001BFCBAE700000020DC060020F4350A0827
:1004C000FC07002000360A08500800201D360A08E4
:1004D00032360A089000002000C06444FB232DE956
:1004E000F041D4B000AF9948FA1C07F15401FB70F9
:1004F00000F0C0FA002800F02281954D01212888E3
:1005000002F035FB02F0AAF8924901F0E7FB02F095
:10051000A5F807F1540101F0E1FB07F15401381D82
:1005200001F0AFF98C4907F1440001F0AAF907F195
:100530004401381D01F0ABFA044607F1440001F014
:1005400056F9864907F1440001F09BF907F144018F
:10055000381D01F09CFA064607F1440001F047F906
:10056000002C40F3E680002E40F3E3802346002277
:10057000391D07F1140001F0B3FA02F06FF8796940
:1005800001F0ACFB731C2246391D07F1240001F079
:10059000A7FA02F063F8796A01F0A0FBFB69002B6F
:1005A00000F08D80FB6A002B00F089806C4907F118
:1005B000440001F066F96B4907F1340001F061F97C
:1005C00007F1340207F1440107F1240001F0AAFA0F
:1005D00007F1340001F00BF907F1440001F007F9CD
:1005E000F96A07F12400013901F03BFB5E4907F18C
:1005F000440001F046F9554800F042F90A2201464C
:1006000007F1340001F0B2F907F1340107F14400B9
:1006100001F0F6F9554901F0FFF9014607F1240010
:1006200001F0CEF907F1340001F0E1F8504C07F188
:10063000440001F0DCF84F4907F1240001F0C4F94F
:100640004D4B226807F1240103EB021807F1440027
:1006500001F056F907F14401404601F05CF907F159
:10066000440001F0C4F823686E460133632B44DC78
:10067000202107F11400236001F0B5F9FA6907F1B0
:10068000140002F1080323F00703ADEB030D6946E4
:10069000002301F0D5F9FA696C4602F1080323F052
:1006A0000703ADEB030DE846631E0DF1FF31144463
:1006B000A34224D013F8010F01F8010FF8E701F06D
:1006C000CDFF2E4901F00AFB07F1240001F08FF85D
:1006D00007F1140001F08BF82888002102F047FA96
:1006E000381D01F084F801F0B9FF254901F0F6FA50
:1006F00007F5A877BD46BDE8F0810023B8E70132D1
:10070000D2B24146114800F0B7FA104800F062F842
:1007100001F0A4FF1B4901F0CEFA01F09FFF414612
:1007200001F0C9FA01F09AFF174901F0D7FAB5466E
:10073000CAE701F093FF154901F0D0FACCE701F0C8
:100740008DFF134901F0CAFACDE700BFDC06002097
:10075000000000204B360A0859360A087F360A087E
:100760005B360A085E360A0861360A086A360A08E5
:10077000880000206D360A089800002081360A089B
:10078000E2350A08B1360A08B8360A08C6360A0839
:10079000FC360A0808B5044800F04FFA18B1BDE865
:1007A0000840FFF79BBE08BDDC06002008B5FFF738
:1007B000F1FFFFF72DFDBDE80840FFF7EBBF01207B
:1007C000704710B50446236820465B6898470028A8
:1007D000F9D010BD0379032BFCD001207047817143
:1007E000704741717047C172704701737047417320
:1007F0007047837B23EA0203194381737047C079F2
:100800007047007A7047407A7047807A70470020BE
:10081000704770B504460E4600F048FC054600F0EF
:1008200045FC401BB04206D2236820465B689847CF
:100830000028F4D070BD0020FCE770B504460E46D9
:1008400000F034FC054600F031FC401BB04204D2FD
:100850002379032BF7D0012070BD0020FCE70000B6
:10086000064AFF210260002241710271C1720282B8
:100870008181428282738282704700BF24370A08D6
:10088000C07B40B2704770477047704710B5044650
:10089000806808B100F06AFC204610BD10B504461F
:1008A00000F090F8014B2046236010BD84370A0801
:1008B00038B50C4D2978BFF35B8F11F001040FD1CF
:1008C0002846FFF7FBFB58B12146074800F07FFEA2
:1008D0002846FFF7F8FB054A0549034802F0B8F936
:1008E000014838BD180800201C08002070000020B6
:1008F0008D080A0810B50C46FFF7DAFF2146BDE85F
:10090000104000F0EBBE08B5FFF7D2FFBDE808408D
:1009100000F07ABE10B50446FFF7CAFF2146BDE8D5
:100920001040014A00F0AEBE40420F0038B5054607
:1009300001F094FE1A4901F0D1F9AC7934B1012CDF
:1009400004D0022C02D0032C18BF0024FFF7B0FF04
:10095000214600F073FE6B79012B0CD1FFF7A8FF45
:10096000002100F05DFE2B79013B032B07D8DFE867
:1009700003F00F111315FFF79BFF0121F1E7012091
:10098000FFF7C8FFFFF794FFBDE8384000F02EBE28
:100990000220F5E70420F3E70820F1E71020EFE755
:1009A00074370A08002302481A461946FFF776BF33
:1009B0002808002070477047417170478171704767
:1009C0000171704730B5034D01710560427183714B
:1009D00030BD00BFB4370A08FB20704710B503795B
:1009E0000446012B05D00022012100F09EFA0123CC
:1009F0002371012010BD000038B5044615461A4683
:100A000000F05EFA044B20462360002384F81F3177
:100A1000FF236577A37738BDF4370A08C37F032B1C
:100A20001BD990F82030C37190F82130037290F8F0
:100A30002230437290F823308372837933B9C379BB
:100A400042799A4202D0C379FF2B06D1438A0133FF
:100A50009BB24382012380F81F31704710B50446D2
:100A600000F02CFB002384F81F31E377BDE8104031
:100A700000F02CBB2DE9F041036804465B680F468B
:100A8000154698470646C8B1AFB1A5B100F016FBB0
:100A90008046E37F2A78033B9342D8BFE37F384602
:100AA000DCBF043B2B702A7804F1240102F0D8FC4F
:100AB000404600F00BFB2046FFF7D0FF3046BDE874
:100AC000F08100000000000038B50446084602F03E
:100AD0002FFA11A3D3E9002302F082FA10A3D3E97D
:100AE000002302F0A7FB02F08DFC0546C0F307428D
:100AF0000621204600F019FAC5F3072207212046F7
:100B000000F013FA08212046EAB200F00EFA0120A4
:100B100038BD00BFAFF300800000000080842E418C
:100B20000000000080844E4010B503790446022B7B
:100B300005D00122114600F0F8F90223237110BDFF
:100B400038B50446122100F0C9F92379042B0DD1E0
:100B500010F0A00F0AD0238A01339BB223822046D3
:100B6000BDE83840FF22122100F0DFB92379042BC1
:100B700001D1420609D42379032BF0D10307EED526
:100B8000A38A01339BB2A38228E01321204600F000
:100B9000A5F910210546204600F0A0F90D210246D6
:100BA000204600F0C2F92B46002104F12002204625
:100BB00000F0E3F9FF2212212046E57700F0B5F9B5
:100BC0001A21204600F08AF9773040B2E0732046BF
:100BD000FFF724FF94F81F31002BC0D02046FFF709
:100BE000A3FFBCE7024B186808B1FFF7A9BF704725
:100BF00034080020024B586808B1FFF7A1BF7047C6
:100C000034080020024B986808B1FFF799BF70477D
:100C10003408002010B503790446042B0CD00423BB
:100C200005220121037100F080F92046BDE8104043
:100C30000022402100F079B910BD10B503790446B7
:100C4000032B05D0FFF7E6FF94F81F01C0B210BDDB
:100C50000020FCE710B503790446032B0BD00322D8
:100C60000121027100F061F940222046BDE81040E8
:100C7000114600F05AB910BDFB2A70B504460E4665
:100C800015462FD803689B6998472046FFF74CFF0D
:100C900000220D21204600F048F90021E27A20468A
:100CA00000F043F90021227B204600F03EF90021AC
:100CB000627B204600F039F90021A27B204600F03B
:100CC00034F92B4632460021204600F087F92A1DD0
:100CD0002221D2B2204600F028F92046FFF7BAFFC1
:100CE000012070BD0020FCE738B505460C466AB10E
:100CF00041EAE1720E2AA8BF0E220921013242F018
:100D00007002D2B2BDE8384000F00FB9172911DCEB
:100D1000042911DD142910DD07224D21284600F099
:100D200004F9033C64B2621F62F07F020921284685
:100D3000D2B2E7E71724EFE7052404224D21284625
:100D400000F0F3F8EFE738B505460C460A781D21A8
:100D500000F0EBF862781E21284600F0E6F82846FD
:100D6000A2782621BDE8384000F0DFB8052913B588
:100D70000FD8094B01EB41015C185A5AA37801A91D
:100D8000ADF804208DF80630FFF7DDFF012002B03A
:100D900010BD0020FBE700BFDC370A0838B5054668
:100DA0000C460A0A202100F0C0F82846E2B22121B0
:100DB000BDE8384000F0B9B873B5044600F06CF8EF
:100DC000054618B90025284602B070BD80220121D1
:100DD0002046667F00F0A9F80A2001F015F80121ED
:100DE000204600F07BF88028ECD10021607F01F0E4
:100DF000ADFEA37FFF2B06D1214A1378032BE1D848
:100E0000591C1170A377A27F1E4B43F8224032BBBE
:100E100000924FF0FF3301221B49304601F078FC6D
:100E200000220E21204600F080F800220F212046EB
:100E300000F07BF82046FFF777FE04212046FFF7FD
:100E400095FF20460821FFF7A9FF20460F49FFF72D
:100E50003BFE002217212046FFF746FFB3E7012A99
:100E60004FF0000304D1009309494FF0FF33D4E75A
:100E7000022AA7D1009301224FF0FF330549CCE7A6
:100E80003008002034080020E50B0A0800C0644444
:100E9000F50B0A08050C0A0810B5044680690368BA
:100EA000DB689847207F012101F050FE0121207F5F
:100EB00001F05DFE642000F0A7FF012010BD0000DE
:100EC00070B504460D461646FFF7CAFC024B204695
:100ED0002360A661257770BD4C380A0870B50446BA
:100EE0000D4600F0EBF80646A06903681B6A9847B8
:100EF000207F002101F03BFEA06905F07F0103681F
:100F00001B689847A069002103681B68984705463D
:100F10000121207F01F02BFEA06903685B6A9847DE
:100F2000304600F0D3F8284670BDF8B517460446A1
:100F30000D4600F0C3F80646A06903681B6A98478F
:100F4000207F002101F013FEA06945F080010368B5
:100F50001B6898470546A069394603681B6898478F
:100F60000121207F01F003FEA06903685B6A9847B6
:100F7000304600F0ABF82846F8BD2DE9F0410F46A9
:100F8000154604461E4600F099F88046A0692E4496
:100F900003681B6A98470021207F01F0E8FDA069E3
:100FA00007F07F0103681B6898470746B54207D0E2
:100FB000A069002103681B68984705F8010BF5E755
:100FC0000121207F01F0D3FDA06903685B6A984787
:100FD000404600F07BF83846BDE8F0812DE9F0414D
:100FE0000F46154604461E4600F068F88046A06984
:100FF0002E4403681B6A98470021207F01F0B7FD4B
:10100000A06947F0800103681B6898470746B5420E
:1010100006D0A06915F8011B03681B689847F6E71E
:101020000121207F01F0A3FDA06903685B6A984756
:10103000404600F04BF83846BDE8F08108B5024B59
:101040001B689B68019308BDB001060808B5024BF8
:101050001B68DB68019308BDB001060808B5024BA8
:101060001B681B69019308BDB001060808B5024B57
:101070001B689B69019308BDB001060808B5024BC7
:101080001B68DB69019308BDB001060808B5024B77
:101090001B685B68019308BD9C01060808B5024BFC
:1010A0001B68DB68019308BD9C01060808B5024B6C
:1010B0001B685B69019308BD9C01060808B5024BDB
:1010C0001B689B6B019308BD9C01060808B5024B89
:1010D0001B68DB6B019308BD9C01060808B5024B39
:1010E0001B689B6D019308BD9C01060808B5024B67
:1010F0001B685B6E019308BD9C01060808B5024B96
:101100001B68DB68019308BDD001060808B5024BD7
:101110001B68DB69019308BDD001060808B5024BC6
:101120001B681B6A019308BDD001060808B5024B75
:101130001B685B6A019308BDD001060808B5024B25
:101140001B689B6A019308BDD001060808B5024BD5
:101150001B68DB6A019308BDD001060808B5024B85
:101160001B685B6C019308BDD001060808B5024BF3
:101170001B689B6C019308BDD001060808B5024BA3
:101180001B68DB6C019308BDD001060808B5024B53
:101190001B685B6D019308BDD001060808B5024BC2
:1011A0001B681B6F019308BDD001060808B5024BF0
:1011B0001B689B69019308BDC401060808B5024B72
:1011C0001B685B6A019308BDC401060808B5024BA1
:1011D0001B689B6A019308BDC401060808B5024B51
:1011E0001B68DB6A019308BDC401060808B5024B01
:1011F0001B681B6B019308BDC401060808B5024BB0
:101200001B685B6B019308BDC401060808B5024B5F
:101210001B689B6B019308BDC401060808B5024B0F
:101220001B681B6C019308BDC401060808B5024B7E
:101230001B681B6E019308BDAC01060808B5024B84
:101240001B685B6E019308BDAC01060808B5024B34
:101250001B689B6E019308BDAC01060808B5024BE4
:101260001B68DB6E019308BDAC01060808B5024B94
:101270001B681B6F019308BDAC01060808B5024B43
:101280001B685B6F019308BDAC01060808B5034BF2
:101290001B68D3F88030019308BD0000AC0106083C
:1012A00008B5024B1B681B68019308BDB401060812
:1012B00008B5024B1B685B68019308BDB4010608C2
:1012C00008B5024B1B689B68019308BDB401060872
:1012D00008B5024B1B68DB68019308BDB401060822
:1012E00008B5024B1B681B69019308BDB4010608D1
:1012F00008B5024B1B685B69019308BDB401060881
:1013000008B5024B1B68DB69019308BDB4010608F0
:1013100008B5024B1B681B6A019308BDB40106089F
:1013200008B5024B1B685B6A019308BDB40106084F
:1013300008B5024B1B681B68019308BDD80106085D
:1013400008B5024B1B685B68019308BDD80106080D
:1013500008B5024B1B681B69019308BDD80106083C
:1013600008B5024B1B685B69019308BDD8010608EC
:1013700008B5024B1B689B69019308BDD80106089C
:1013800008B5024B1B68DB69019308BDD80106084C
:1013900008B5024B1B681B6A019308BDD8010608FB
:1013A00008B5024B1B689B6C019308BDC001060881
:1013B00008B5024B1B685B6B019308BDA8010208CE
:1013C00008B5024B1B685B6D019308BDA8010208BC
:1013D00008B5024B1B681B68019308BDA4010608F1
:1013E00008B5024B1B685B68019308BDA4010608A1
:1013F00008B5024B1B685B69019308BDA401060890
:1014000008B5024B1B68DB6C019308BDA4010608FC
:1014100008B5024B1B685B6D019308BDA40106086B
:1014200008B5024B1B689B6D019308BDA40106081B
:1014300008B5034B1B68D3F89030019308BD00003A
:10144000A401060808B5034B1B68D3F89C30019330
:1014500008BD0000A401060808B5024B1B685B68C4
:10146000019308BDC801060808B5024B1B689B68BC
:10147000019308BDC801060808B5024B1B68DB686C
:10148000019308BDC801060808B5024B1B681B691B
:10149000019308BDC801060808B5024B1B685B69CB
:1014A000019308BDC801060808B5024B1B689B697B
:1014B000019308BDC801060808B5024B1B68DB692B
:1014C000019308BDC801060808B5024B1B681B6ADA
:1014D000019308BDC801060808B5024B1B681B6BC9
:1014E000019308BDC801060808B5024B1B685B6B79
:1014F000019308BDC801060808B5024B1B681B6CA8
:10150000019308BDC801060808B5024B1B685B6C57
:10151000019308BDC801060808B5024B1B689B680B
:10152000019308BDCC01060808B5024B1B685B6936
:10153000019308BDCC01060808B5024B1B681B6A65
:10154000019308BDCC01060808B5024B1B681B6B54
:10155000019308BDCC01060808B5024B1B68DB6B84
:10156000019308BDCC01060808B5024B1B681B6837
:10157000019308BDA001060808B5024B1B685B6813
:10158000019308BDA001060808B5024B1B689B68C3
:10159000019308BDA001060808B5024B1B68DB6A71
:1015A000019308BDA001060808B5024B1B681B6B20
:1015B000019308BDA001060808B5024B1B685B6CCF
:1015C000019308BDA00106088068FFF7DFBD70B574
:1015D000002604460D4640F8086FFFF7BFFD284679
:1015E0002570FFF78DFE2046666070BD10B504467D
:1015F0008068FFF7C3FD20784FF6FF71FFF750FEBC
:101600002046FFF7E1FF10BD10B504468068FFF7E4
:10161000B5FD2078FFF74CFE2046FFF7D5FF10BD43
:1016200038B504460D468068FFF7A8FD20782946A6
:10163000FFF746FE2046FFF7C7FF38BD38B5044622
:101640000D468068FFF79AFD20782946FFF740FE97
:101650002046FFF7B9FF38BD30B5002440081860B8
:101660001868E5B2884206D90134082C02D0400837
:101670001860F5E70725024B5B5D137030BD00BFB6
:101680009C380A08F0B50025044689B0806802FB42
:1016900001F60295FFF772FD2946142203A8277868
:1016A00001F006FF0B232A46384603A9ADF80C309B
:1016B000FFF736FE02AB0DF10702314604988DF8B4
:1016C0000750FFF7C9FF9DF807102078FFF708FEC5
:1016D0002046FFF779FF029809B0F0BD08B5007801
:1016E000FFF706FEC0B208BD10B50446006818B189
:1016F000FFF742FF0023236010BD10B50446FFF73B
:10170000F3FF204610BD00000222002010B5084B58
:10171000084C1A60084B2060A080A071A360FFF7FE
:101720005FFE2046BDE81040044A054901F090BA2A
:101730004C080020400800200000FFFF700000203F
:10174000FB160A0810B5044601F001FF431E2046AF
:101750002344834206D90278197800F8011B03F864
:101760000129F6E710BD70B50C46911E222922D83A
:10177000254668B1B0FBF2F602FB1600C1B209289B
:1017800094BF30315731C9B2304605F8011BF0E73C
:101790002A4630212344934202D902F8011BFAE77A
:1017A0005A1BAB4238BF002200232046AB54FFF740
:1017B000C9FF204670BD0020FCE738B5031E0C466B
:1017C00015460DDA2D22B3F1004F0CBF18465842D2
:1017D00001230A702A461944FFF7C5FF204638BD89
:1017E0000123F9E708B50123FFF7BDFF08BD10B5D8
:1017F00004460068FFF7C0FE204610BD10B5044641
:10180000006808B1FFF7B8FE0023C4E90133236084
:1018100010BD38B504460D4600680131FFF7B4FE2F
:1018200010B1C4E90005012038BD10B503680446B5
:1018300023B143688B4201D3012010BD2046FFF73E
:10184000E8FF0028F9D0A368002BF5D122681370B7
:10185000F2E770B50E46114604461546FFF7E5FF60
:1018600020B92046FFF7CAFF204670BD2A46314600
:101870002068A56001F0F4FD00212268A368D1541E
:10188000F2E738B5002304460D46C0E90033836013
:10189000037339B1084601F05AFE29460246204634
:1018A000FFF7D7FF204638BD38B5054600680C461F
:1018B00068B16A688B689A4207D3096801F024FE10
:1018C000A368AB600023A36038BDFFF755FE236813
:1018D0002B6063686B60A368AB600023C4E90033CE
:1018E000F1E7884210B50B46044604D0096821B1DF
:1018F0009A68FFF7AEFF204610BDFFF77FFFFAE7BB
:10190000002310B50446C0E9003383600373FFF77A
:10191000E8FF204610BD884210B5044601D0FFF70D
:10192000C3FF204610BD38B505460C4649B10846F0
:1019300001F00DFE214602462846FFF78AFF2846A1
:1019400038BDFFF75BFFFAE71FB5044600230846E2
:10195000C4E90033A360237301A9FFF743FF2046C6
:1019600001A9FFF7E0FF204604B010BD10B5002329
:1019700004468AB0C4E90033A3602373084601A972
:10198000FFF71BFF204601A9FFF7CDFF20460AB055
:1019900010BD70B505460E4609B9002070BD6AB18C
:1019A000846814442146FFF740FF0028F5D02868DA
:1019B000AB683146184401F0A7FDAC600120EDE7AB
:1019C0008A680968FFF7E5BF38B505460C46084642
:1019D00041B101F0BCFD214602462846BDE8384031
:1019E000FFF7D7BF38BD002307B501228DF80410DB
:1019F00001A98DF80530FFF7CCFF03B05DF804FBBB
:101A000010B58A6809680446FFF7C3FF10B920467D
:101A1000FFF7F4FE204610BD38B504460D4621B947
:101A20002046FFF7EBFE204638BD084601F08FFD4B
:101A3000294602462046FFF7ACFF0028F0D0F2E727
:101A400058B50E462AB121B18468A34202D30023BF
:101A50000B7058BDE41A013A944228BF144601683D
:101A600022461944304601F07AFD00233355F0E751
:101A700010B58368934207D904680968A01801F07B
:101A800081FD08B1001B10BD4FF0FF30FBE70022C5
:101A9000FFF7EEBF2DE9F04115468A680E46CAB140
:101AA0008368BBB19A4215D807684FF0FF343846B7
:101AB000AB4298BF03F1FF3507EB050840450BD853
:101AC000316801F05FFD38B1C31BAB4298BF1C46C3
:101AD0000130F3E74FF0FF342046BDE8F08100000D
:101AE000F8B51D469A4288BF13460F46144688BF74
:101AF0002C460B4988BF1D460646FFF7C2FEBA6852
:101B0000A2420AD33968AA4294BFC4EB0202C4EBD2
:101B1000050230462144FFF79CFE3046F8BD00BF69
:101B2000E2350A082DE9F74FD0F808A005460F4620
:101B30001646BAF1000F46D0D1F808B0BBF1000F3D
:101B400041D093680468A3EB0B08B8F1000F0DD1E6
:101B50002046396801F016FD0446002833D0B268EB
:101B6000316801F07DFCB0680444F1E70BDBD1463D
:101B700009682046019101F005FD40B3019900EB91
:101B80000B04C144F5E7A1462046396801F0FAFC90
:101B90008246A0B1A0EB040B21465A464846D944E0
:101BA00001F05EFC4846B268316801F059FCAB6850
:101BB000B268BC68434491445444AB60E4E72146B6
:101BC000484601F0A1FC284603B0BDE8F08FCA45A5
:101BD000F9D06B684B4523D34FF00009AC68621E07
:101BE000002AF0DB39462846FFF754FF041EEADBE3
:101BF000BB6829682344AA681944D21A01EB08007B
:101C000001F03CFCAB682A684344AB6002F80390E7
:101C10002868B2683168204401F022FC621EDFE7C8
:101C200049462846FFF7F5FD0028D5D1CBE738B562
:101C30000446A36808468B4211D982B111448B42F5
:101C400038BF1A1A2568991A1318A1600A1AE918D8
:101C5000284401F013FC00212268A368D1542046D7
:101C600038BD8268521AFFF7E2BFF8B506460D4646
:101C700000248F18BD420CD0336830469B6815F89D
:101C8000011B9847031E01DB1C44F3E7002C08BF2F
:101C90001C462046F8BD70B505460C46084649B1BD
:101CA00001F055FC2B68024621462846BDE87040ED
:101CB000DB68184770BD08B5FFF7EDFF08BD036886
:101CC0009B68184738B50D210546FFF7F8FF0A2134
:101CD00004462846FFF7F3FF204438BD38B50546D3
:101CE000FFF7D9FF04462846FFF7ECFF204438BD34
:101CF0000023012A98BF0A2230B58BB00C468DF81C
:101D0000243009A92546B4FBF2F404FB1253DBB2DC
:101D1000092B94BF30333733DBB2AA4201F8013DBF
:101D2000F0D9FFF7B8FF0BB030BD002340681A466A
:101D30001946FFF7B1BB38B5046805467CB1636846
:101D4000013B63605BB9236820469B689847A368A2
:101D5000013BA3601BB923682046DB6898472846EF
:101D600038BD0B68036013B15A6801325A6070477E
:101D7000014B024A1A60704750080020A4380A0834
:101D800008B50020FFF7E0FB28B1FFF7CDFB80F09E
:101D90000100C0B208BD0120FCE710B50020FFF72C
:101DA0009DF90446A0B9FFF713FB012810D1204686
:101DB000FFF736FB60B9FFF7E3FF10B9FFF7ACFBA5
:101DC000F9E7FFF7DDFFBDE810400020FFF786B917
:101DD000204610BD1FB5FFF7E0FF10220021684626
:101DE00001F066FB00216846FFF780F9009805B016
:101DF0005DF804FB024B1A68024B1A60704700BF83
:101E000004000020540800200021FFF7F1BA10B5AB
:101E10000446FEF79EF9204610BD13B56C460B46EE
:101E2000024603C884E8030093E8030082E8030045
:101E300094E8030083E8030002B010BD00230348C8
:101E4000034A0449836000F003BF00BF5808002024
:101E5000700000200F1E0A08014B1860704700BF79
:101E60000800002008B5134B43B100F0F7FB0368EE
:101E70001B699847002801DDAFF300800E4B43B18A
:101E800000F0C2FC03681B699847002801DDAFF32E
:101E900000800A4B0BB1AFF30080094B43B100F057
:101EA0000DFC03681B699847002801DDAFF3008033
:101EB00008BD00BF0000000000000000000000009E
:101EC0000000000008B5FFF7CDFFFFF7EFF8014B6A
:101ED000186008BDD00800200248034A0349121ABE
:101EE00001F0BEBA0040024004400240203A0A0815
:101EF000002307B51A466FF077010093FFF7A2FAA7
:101F000003B05DF804FB000007B543880A2B08D036
:101F1000502B0BD1094B1B684BB103B05DF804EBA0
:101F20001847FFF7E5FF03B05DF804FB00231A46EE
:101F30006FF077010093FFF785FAF4E76C08002053
:101F400038B5124C00211248FFF736FB114D2368BB
:101F5000AB420CBF012200220F4B1A7002D0FFF7D8
:101F6000BBFF2560FFF792F8044601F0A9FA0B4B7E
:101F700013B12046AFF3008000210848FFF7ECFAC8
:101F8000BDE8384000210648FFF752BA0040024041
:101F9000591E0A081E1C279A68080020000000002D
:101FA000091F0A0870470020704710B50446102129
:101FB00000F053FE204610BD08B5FFF7F6FF08BD40
:101FC000002230B54FF69C74026084808D888C802E
:101FD0000C68858004600A6030BD10B50446006856
:101FE000FFF7CAFA204610BD38B5C468F4B12378AB
:101FF000022B03D104F10C00FFF7EFFF656835B148
:102000002846FEF7A6F81021284600F026FEA5680F
:1020100035B12846FEF79DF81021284600F01DFE38
:102020002046BDE83840142100F017BE38BD73B516
:102030000E46044656F8043B0D4601A8314600936F
:10204000FFF78FFE009B019A23600023626001A8C6
:1020500001930093FFF76FFE3046FFF76CFE2846B2
:10206000082100F0FAFD204602B070BD826810B56C
:102070000AB900F0F6FDC368BDE81040184708B57E
:10208000006800F11001FFF7F1FF08BD826810B58C
:102090000AB900F0E6FDC368BDE81040184708B56E
:1020A000006800F11001FFF7F1FF08BD38B500230B
:1020B0000446036010200D46FDF7EFFF28B1012311
:1020C000C0E90133024BC56003602060204638BD83
:1020D000CC380A0838B5002383608B6804460D4667
:1020E0002BB102229847EB68E360AB68A3602046FF
:1020F00038BD0000F0B589B004686846FFF760FF9E
:102100004FF00203D4E84F2F002A03D1C4E8413F27
:102110000029F7D125D104F10C0569462846FFF7BF
:102120004FFF0123BFF35B8F63700020BFF35B8F12
:1021300004F1080353E8006F43E80002002AF9D1D4
:10214000BFF35B8F6EB1FFF75BF978B1294630467C
:10215000FFF78CFF3046FDF7FCFF1021304600F002
:102160007CFD6846FFF739FF09B0F0BD314602A893
:10217000FFF7B0FFE068B4F9105008B101F0CCF9F6
:1021800006901020ADF81C50FDF787FF0546E8B11A
:10219000002787601820FDF780FF044688B10146BC
:1021A000876002A8FFF739FE049BA268A360059B25
:1021B0000492E26806A9E36004F110000592FFF7BB
:1021C000FFFE084B2C60EB60074BAB6006A8FFF7E7
:1021D00004FF02A8FDF7BDFF002229460348FFF7D0
:1021E00017F9B7E77F200A0815230A088D280A087F
:1021F0002DE9F0478AB005460C46174698469DF8EB
:102200004890FFF791F907AE824638BB4FF62E7320
:10221000059005A93046ADF81830FFF7D1FE14201F
:10222000FDF73BFF044648B1022303700123C0E9D8
:1022300001AA437031460C30FFF7C2FE2846214602
:1022400040F8044BFFF732FF3046FFF7C6FE05A803
:10225000FFF7C3FE28460AB0BDE8F0870C234FF015
:10226000000A1420CDE908AA0793FDF716FF0146DE
:1022700028B1C0E901AA80F800A080F801A004A854
:102280000391FFF713FF224B08200893FDF705FF8A
:10229000824628B1039B04A940F8043BFFF761FD87
:1022A00042463946204600965FFA89F3CDF824A0CD
:1022B000FFF742F9B8B9039B5B7803F0FF0293B9CB
:1022C0004FF69C7305A903A80592ADF81830FFF7E7
:1022D00011FF05A8FFF781FE05A80999FFF7A7FEE2
:1022E00006A8FFF728FD039B04A906A80593FFF79E
:1022F00038FD059B069A2B6000236A6006A80693AA
:102300000593FFF718FD04A8FFF715FDA2E700BF2E
:10231000D9230A08022AF8B5054607D0032A18D09F
:10232000012A01D10B6803600020F8BD18200E6857
:10233000FDF7B3FE044650B13146FFF7CBFE3069DE
:10234000B6F9147008B101F0E7F82061A7822C609B
:10235000EAE70468002CE7D004F11000FFF73DFE27
:102360002046FDF7F6FE1821204600F076FCDBE75C
:1023700038B5002383608B6804460D462BB10222DA
:102380009847EB68E360AB68A360204638BD022A3B
:1023900070B5044607D0032A12D0012A01D10B6878
:1023A0000360002070BD14200E68FDF776FE054620
:1023B00020B13146FFF7DCFF337C2B742560F0E75A
:1023C0000468002CEDD02046FDF7C3FE1421204602
:1023D00000F043FCE5E70000F0B5044689B00D4687
:1023E00001A81146FFF723FEA4B124B21DB128466F
:1023F00001F092F8054601A803A90395ADF8104035
:10240000FFF778FE03A8FFF7E8FD02A8FFF793FCAB
:1024100009B0F0BD0123019DD5E84F2F002A03D15B
:10242000C5E8413F0029F7D1EFD12B73BFF35B8F94
:102430006B70BFF35B8F2B1D53E8006F43E80042C6
:10244000002AF9D1BFF35B8F002EDED02046FEF7C5
:10245000D7FF074660B1304605F10C01FFF716FEC5
:102460003046FDF776FE1021304600F0F6FBCCE753
:10247000314603A8FFF77CFF2B7B10208DF81C3022
:10248000FDF70BFE0546D0B187601420FDF705FE71
:10249000044678B10146876003A8FFF7BEFC059BA0
:1024A000A268A360069B0592E268E3609DF81C3079
:1024B00006922374064B2C60EB60064BAB6003A8BE
:1024C000FDF747FE002229460348FEF7A1FFC7E7B4
:1024D0009F200A088F230A088D280A08704710B524
:1024E0000446182100F0B9FB204610BDF8B50E4691
:1024F000002400F10807051D17F8011D0A223046C7
:10250000FFF7F6FBAF42044401D12046F8BD002C92
:10251000F2D02E213046FFF7D2FB0444ECE7000056
:1025200010B50446044B1122002140F8043B00F092
:10253000BFFF204610BD00BFE8380A080346074A1F
:1025400010B543F8042B01F1100251F8044B9142ED
:1025500043F8044BF9D10A781A7010BDE8380A081C
:10256000024AC0E90021042202757047E8380A08CF
:1025700010B59DF8084044EA0324042344EA0244C9
:1025800044EA01644460037510BD000037B5044D92
:1025900005609DF818500095FFF7EAFF03B030BDC5
:1025A000E8380A0841747047704708B50021007C7C
:1025B000FEF7DEFE40EAE07008BD08B50121007CB0
:1025C000FEF7D6FE40EAE07008BD08B5007CFEF7D5
:1025D000C7FE20EAE07008BD08B5007CFEF7B8FE33
:1025E00020EAE07008BD38B50446007C0D46FEF7D1
:1025F000B7FE002801DC607C28B12946207CFEF76C
:10260000BFFE20EAE07038BD007CFEF7C1BE10B509
:102610000446142100F021FB204610BD10B54FF4F4
:102620007A73044608460021C4E90113044B207460
:102630002360012311466374FEF77AFE204610BD25
:10264000FC380A080022007CFEF77ABE10B504466A
:102650001422002100F02CFF204610BD30B50F4D94
:1026600087B001A8FFF7F2FF2978BFF35B8F11F065
:10267000010410D12846FDF721FD60B1214601AAD1
:102680000748FFF7CBFF2846FDF71DFD054A064921
:10269000034800F0DDFA024807B030BD70080020A2
:1026A0007808002070000020A9250A0810B504460B
:1026B0001422002100F0FCFE204610BD10B50F4C86
:1026C00086B001A8FFF7F2FF2378BFF35B8FDB072B
:1026D00010D42046FDF7F2FC60B1012101AA0848A0
:1026E000FFF79CFF2046FDF7EEFC064A064904482A
:1026F00000F0AEFA024806B010BD00BF740800201A
:102700008C08002070000020A9250A08004700005E
:102710002DE9FF4100241D460F4690460646FEF770
:10272000ADFC0423A5428DF80C30A8BF9DF82830DD
:10273000ADF80D408DF80F40A4BF03AC8DF80E30FE
:102740003A464346304606490094A8BF8DF80D50DE
:10275000FEF78CFCB0FA80F0400904B0BDE8F081CF
:102760000D270A0870474174704708B5007CFEF7D2
:1027700055FD20EAE07008BD08B5007CFEF726FD97
:1027800020EAE07008BD08B5007CFEF72FFD40EAA6
:10279000E07008BD08B5007CFEF720FD40EAE0705F
:1027A00008BD007CFEF72ABD70B5467C04460D4688
:1027B0002EB12946207CBDE87040FEF7FFBC007CAE
:1027C000FEF72CFD0028F4DC304670BD10B5044641
:1027D000142100F042FA204610BD00004FF0000C1A
:1027E00010B50446084611464FF47A72C4E901C296
:1027F000044A20742260012262741A46FEF7D6FC55
:10280000204610BD2C390A08F8B51A4C26684EB976
:102810008420FDF742FC054618B18422314600F0C1
:1028200047FE2560144D2F684FB98420FDF735FC15
:10283000064618B18422394600F03AFE2E600F4F4A
:102840003978BFF35B8F11F0010611D13846FDF7DF
:1028500035FC68B1314622682B680948FFF7BEFF96
:102860003846FDF730FC074A0749054800F0F0F903
:102870000348F8BDA4080020A8080020A0080020F4
:10288000AC0800207000002065270A0810B5836896
:1028900004460BB900F0E5F9C3689847A3681BB17B
:1028A00003222146204698472046BDE810401021CB
:1028B00000F0D3B97047F8B5064615460C468F1898
:1028C000BC4206D0336830469B6814F8011B984719
:1028D000F6E72846F8BD0022007CFEF7A7BC0021E1
:1028E000007CFEF7ABBC0021007CFEF7AFBC0021F2
:1028F000007CFEF7B3BC0021007CFEF7B7BC10B52E
:102900000446142100F0A9F9204610BD10B54FF47B
:102910007A73044608460021C4E90113034B1146AB
:1029200023602074FEF7B2FC204610BD5C390A0813
:10293000002240681146FEF7A7BDF0B5154689B0E4
:1029400011220E460446002103A800F0B1FD2846DE
:1029500000F0FDFD002781B273682846009703AAA6
:10296000FEF71EFD30B139462046FFF7F9FD20463F
:1029700009B0F0BD204603A9FFF7E0FDF7E700220C
:1029800040681146FEF7A0BD002240681146FEF7E0
:10299000ABBD00224068FEF79FBD0022406881F079
:1029A0000101FEF789BD002340681A461946FEF76B
:1029B0007BBD002240681146FEF756BD0022022171
:1029C0004068FEF759BD002340681A46FEF744BD33
:1029D0000422024B5A60024A1A607047C008002065
:1029E00084390A08002340681A46FEF735BD0022E4
:1029F00002214068FEF740BD002240681146FEF704
:102A000033BD002240681146FEF73EBD00234068FA
:102A10001A461946FEF740BD002340681A4619467B
:102A2000FEF742BD00214068FEF766BD0021406808
:102A3000FEF76ABD0022406881F00101FEF73CBD4F
:102A400000224068FEF748BD002240681146FEF7AC
:102A50004BBD002240681146FEF736BD70B51546E5
:102A60008EB0044608A8FFF75BFD1122002103A8E1
:102A700000F01EFD0026284600F069FD0A4B009676
:102A800081B25B68284603AAFEF78AFC30B1314662
:102A90002046FFF765FD20460EB070BD204603A915
:102AA000FFF74CFDF7E700BFC0080020024B034AC8
:102AB0001A6000225A607047C8080020C0390A080E
:102AC000172870B5044601D9002070BDA0F10D0390
:102AD000022B0BD9012826D800F092F80021007CA7
:102AE000FEF7CCFB80F00100C0B2EEE7134E317868
:102AF000BFF35B8F11F001050FD13046FDF7DEFA11
:102B000058B129460E48FEF762FD3046FDF7DBFA64
:102B10000C4A0D490A4800F09BF8094B1878FEF75B
:102B2000F7FB0028D0D1123C012C05D8FFF76CFE32
:102B3000007CFEF76BFBD5E70120C6E718080020F4
:102B40001C080020700000208D080A08172838B5DE
:102B500004460D460AD8FF2908D0FFF7B1FF28B177
:102B600029462046BDE83840FEF768BA38BD38B57A
:102B700004460D46FEF76AFAFF2810D0062804D84E
:102B80004D2323FA00F0C30709D42046FFF798FF2E
:102B900028B129462046BDE83840FEF75FBA38BD67
:102BA000002313B5074C1A46194620460093FFF739
:102BB000EDFC2046044A054902B0BDE8104000F093
:102BC00047B800BFD408002070000020DD240A08A8
:102BD000002370B5202543801423084E044603804B
:102BE000314685600561284600F039F8314660605D
:102BF000284600F034F8E060204670BDF4390A0839
:102C000030B50F4D87B02978BFF35B8F11F0010409
:102C100013D12846FDF752FA78B101A8FFF7D8FF83
:102C2000214601AA0748FFF771FE2846FDF74BFA37
:102C3000054A0649034800F00BF8024807B030BDCA
:102C4000EC080020F008002070000020B5280A08D9
:102C50000B460146184600F0F5BBFDF722BAFDF71A
:102C60001EBA08B5FEF798FC81F0004102E000BFF3
:102C700083F0004330B54FEA41044FEA430594EA3C
:102C8000050F08BF90EA020F1FBF54EA000C55EA77
:102C9000020C7FEA645C7FEA655C00F0E2804FEA48
:102CA0005454D4EB5555B8BF6D420CDD2C4480EA2A
:102CB000020281EA030382EA000083EA010180EA5A
:102CC000020281EA0303362D88BF30BD11F0004FA8
:102CD0004FEA01314FF4801C4CEA113102D04042DE
:102CE00061EB410113F0004F4FEA03334CEA133319
:102CF00002D0524263EB430394EA050F00F0A78031
:102D0000A4F10104D5F1200E0DDB02FA0EFC22FA2B
:102D100005F2801841F1000103FA0EF2801843FA1F
:102D200005F359410EE0A5F120050EF1200E012A10
:102D300003FA0EFC28BF4CF0020C43FA05F3C0184E
:102D400051EBE37101F0004507D54FF0000EDCF1C7
:102D5000000C7EEB00006EEB0101B1F5801F1BD370
:102D6000B1F5001F0CD349085FEA30004FEA3C0C74
:102D700004F101044FEA445212F5800F80F09A806A
:102D8000BCF1004F08BF5FEA500C50F1000041EB6E
:102D9000045141EA050130BD5FEA4C0C404141EB72
:102DA0000101013C28BFB1F5801FE9D291F0000F6D
:102DB00004BF01460020B1FA81F308BF2033A3F11C
:102DC0000B03B3F120020CDA0C3208DD02F1140C13
:102DD000C2F10C0201FA0CF021FA02F10CE002F14E
:102DE0001402D8BFC2F1200C01FA02F120FA0CFC47
:102DF000DCBF41EA0C019040E41AA2BF01EB045190
:102E0000294330BD6FEA04041F3C1CDA0C340EDC8D
:102E100004F11404C4F1200220FA04F001FA02F3D0
:102E200040EA030021FA04F345EA030130BDC4F18E
:102E30000C04C4F1200220FA02F001FA04F340EA83
:102E40000300294630BD21FA04F0294630BD94F034
:102E5000000F83F4801306BF81F480110134013D1B
:102E60004EE77FEA645C18BF7FEA655C29D094EA8C
:102E7000050F08BF90EA020F05D054EA000C04BF0A
:102E80001946104630BD91EA030F1EBF00210020F5
:102E900030BD5FEA545C05D14000494128BF41F094
:102EA000004130BD14F580043CBF01F5801130BDF8
:102EB00001F0004545F0FE4141F470014FF0000083
:102EC00030BD7FEA645C1ABF194610467FEA655C34
:102ED0001CBF0B46024650EA013406BF52EA0335D6
:102EE00091EA030F41F4002130BD00BF90F0000FC4
:102EF00004BF0021704730B54FF4806404F1320400
:102F00004FF000054FF0000150E700BF90F0000FB8
:102F100004BF0021704730B54FF4806404F13204DF
:102F200010F0004548BF40424FF000013EE700BFAF
:102F300042004FEAE2014FEA31014FEA02701FBF3F
:102F400012F07F4393F07F4F81F06051704732F071
:102F50007F4208BF704793F07F4F04BF41F40021C8
:102F6000704730B54FF4607401F0004521F0004126
:102F70001CE700BF50EA010208BF704730B54FF0B0
:102F800000050AE050EA010208BF704730B511F0B1
:102F9000004502D5404261EB41014FF4806404F1E9
:102FA00032045FEA915C3FF4D8AE4FF003025FEA6F
:102FB000DC0C18BF03325FEADC0C18BF033202EBF3
:102FC000DC02C2F1200300FA03FC20FA02F001FA4D
:102FD00003FE40EA0E0021FA02F11444BDE600BFF0
:102FE00070B54FF0FF0C4CF4E06C1CEA11541DBF9F
:102FF0001CEA135594EA0C0F95EA0C0F00F0DEF86A
:103000002C4481EA030621EA4C5123EA4C5350EA4E
:10301000013518BF52EA033541F4801143F480139F
:1030200038D0A0FB02CE4FF00005E1FB02E506F030
:103030000042E0FB03E54FF00006E1FB03569CF085
:10304000000F18BF4EF0010EA4F1FF04B6F5007F8B
:1030500064F5407404D25FEA4E0E6D4146EB0606FD
:1030600042EAC62141EA55514FEAC52040EA5E5086
:103070004FEACE2EB4F1FD0C88BFBCF5E06F1ED830
:10308000BEF1004F08BF5FEA500E50F1000041EB67
:10309000045170BD06F0004646EA010140EA020014
:1030A00081EA0301B4EB5C04C2BFD4EB0C0541EA36
:1030B000045170BD41F480114FF0000E013C00F34B
:1030C000AB8014F1360FDEBF002001F0004170BD6F
:1030D000C4F10004203C35DA0C341BDC04F1140488
:1030E000C4F1200500FA05F320FA04F001FA05F214
:1030F00040EA020001F0004221F0004110EBD370E1
:1031000021FA04F642EB06015EEA430E08BF20EA0C
:10311000D37070BDC4F10C04C4F1200500FA04F3AF
:1031200020FA05F001FA04F240EA020001F0004141
:1031300010EBD37041F100015EEA430E08BF20EAB4
:10314000D37070BDC4F1200500FA05F24EEA020EFC
:1031500020FA04F301FA05F243EA020321FA04F02B
:1031600001F0004121FA04F220EA020000EBD370E2
:103170005EEA430E08BF20EAD37070BD94F0000FE2
:103180000FD101F00046400041EB010111F4801F16
:1031900008BF013CF7D041EA060195F0000F18BFC7
:1031A000704703F00046520043EB030313F4801F03
:1031B00008BF013DF7D043EA0603704794EA0C0FBD
:1031C0000CEA135518BF95EA0C0F0CD050EA4106D3
:1031D00018BF52EA4306D1D181EA030101F0004150
:1031E0004FF0000070BD50EA410606BF1046194678
:1031F00052EA430619D094EA0C0F02D150EA013684
:1032000013D195EA0C0F05D152EA03361CBF1046C4
:1032100019460AD181EA030101F0004141F0FE4163
:1032200041F470014FF0000070BD41F0FE4141F4E7
:10323000780170BD70B54FF0FF0C4CF4E06C1CEAE7
:1032400011541DBF1CEA135594EA0C0F95EA0C0F9C
:1032500000F0A7F8A4EB050481EA030E52EA033557
:103260004FEA013100F088804FEA03334FF0805578
:1032700045EA131343EA12634FEA022245EA1115A5
:1032800045EA10654FEA00260EF000419D4208BF56
:10329000964244F1FD0404F5407402D25B084FEA03
:1032A0003202B61A65EB03055B084FEA32024FF4AF
:1032B00080104FF4002CB6EB020E75EB030E22BF0C
:1032C000B61A754640EA0C005B084FEA3202B6EBCC
:1032D000020E75EB030E22BFB61A754640EA5C007B
:1032E0005B084FEA3202B6EB020E75EB030E22BF0B
:1032F000B61A754640EA9C005B084FEA3202B6EB0C
:10330000020E75EB030E22BFB61A754640EADC00CA
:1033100055EA060E18D04FEA051545EA16754FEA2C
:1033200006164FEAC30343EA52734FEAC2025FEA4A
:103330001C1CC0D111F4801F0BD141EA00014FF0D9
:1033400000004FF0004CB6E711F4801F04BF0143AA
:103350000020B4F1FD0C88BFBCF5E06F3FF6AFAEC6
:10336000B5EB030C04BFB6EB020C5FEA500C50F156
:10337000000041EB045170BD0EF0004E4EEA1131D9
:1033800014EB5C04C2BFD4EB0C0541EA045170BDE0
:1033900041F480114FF0000E013C90E645EA060E24
:1033A0008DE60CEA135594EA0C0F08BF95EA0C0F52
:1033B0003FF43BAF94EA0C0F0AD150EA01347FF49A
:1033C00034AF95EA0C0F7FF425AF104619462CE771
:1033D00095EA0C0F06D152EA03353FF4FDAE1046D4
:1033E000194622E750EA410618BF52EA43067FF425
:1033F000C5AE50EA41047FF40DAF52EA43057FF4B5
:10340000EBAE12E74A0011D212F5001211D20DD51F
:103410006FF47873B3EB62520ED44FEAC12343F0DA
:10342000004343EA505323FA02F070474FF0000084
:10343000704750EA013002D14FF0FF3070474FF033
:103440000000704710B504460448134620B10A46F0
:1034500002202146AFF3008010BD00BF0000000035
:103460000A44914200F1FF3300D1704710B511F8C2
:10347000014B914203F8014FF9D110BD884210B5BC
:1034800001EB020402D98442234607D8431EA1421D
:1034900008D011F8012B03F8012FF8E70146024488
:1034A0008A4200D110BD13F8014D02F8014DF7E733
:1034B00003460244934200D1704703F8011BF9E729
:1034C00038B50D4B04461D68AB6B7BB91820FEF771
:1034D0004BF80A4A0A4BA863C0E90023094B0122B2
:1034E00083600B2383810023C0E904230022AB6B9C
:1034F0001C615A6138BD00BF080000200E33CDABFF
:1035000034126DE6ECDE0500034611F8012B03F8DA
:10351000012B002AF9D17047024B0146186800F0D0
:1035200003B800BF0800002070B5044608460D46E9
:1035300000F00DF8461C31462046FEF735F80446EB
:1035400018B132462946FFF78BFF204670BD03466F
:1035500013F8012B002AFBD1181A013870470346D3
:1035600010B5013932B111F8014F013A03F8014B9E
:10357000002CF7D100211A44934200D110BD03F86A
:10358000011BF9E7F0B50C7864B103461A781846C8
:103590005E1C0AB9104605E0944208D10D4615F8A4
:1035A000012F02B9F0BD13F8017F9742F7D03346DF
:1035B000ECE7000021000A0861000A0889000A08F7
:1035C0008D000A080000000053656E7420746F209F
:1035D000636C6F75643A20000A53454E5420414C89
:1035E0004C0A004F776C4E6F64655F537973746556
:1035F0006D303100696E6974206661696C656400C4
:103600004D6178206C6F7261206D657373616765C1
:10361000206C656E6774682069733A200046696E95
:103620006973686564205365747570206C6F6F7082
:103630002E002A2A2A2A2A2A2A2A2A2A2A2A2A2A10
:103640002A2A2A2A2A2A2A2A2A2A00676F742072FA
:103650006571756573743A20007B0044760044649C
:10366000002C225369223A2022002220002C2244DE
:1036700076223A2022536572766572303122207D9F
:10368000004944206F72206D657373616765206E19
:103690006F7420666F756E642E204E6F2072657099
:1036A0006C79206D6573736167652073656E742E28
:1036B0000053656E74202D002D20617320612072EF
:1036C00065706C792E004E6F207374617274206F78
:1036D0007220656E6420627261636B657420666F30
:1036E000756E642C206E6F207265706C79206D652C
:1036F00073736167652073656E742E0072656376FF
:10370000206661696C656400000000000000000034
:1037100085010A08CD010A080D010A080000000011
:1037200000000000BF070A08A9000A08A9000A084B
:10373000A9000A08A9000A08C3070A08D5070A0849
:103740003B080A0813080A08E3070A08E7070A08FB
:10375000EB070A08EF070A08F3070A08DF070A0859
:10376000FF070A0803080A0807080A080B080A08DE
:103770000F080A08484552450000000000000000FC
:1037800000000000F5080A088B080A088B080A08E0
:103790002D090A0807090A08B9090A08BD090A0813
:1037A000C1090A0887080A0889080A0800000000F9
:1037B00000000000A9000A08B5090A08B7090A08AC
:1037C000A9000A08A9000A08B9090A08BD090A08D7
:1037D000C1090A0887080A0889080A087274009251
:1037E000740048940078C400789400000000000041
:1037F00000000000B90D0A083B0C0A08750A0A0807
:10380000790C0A08D9090A08C3070A08D5070A0863
:103810003B080A0813080A08E3070A08E7070A082A
:10382000EB070A08EF070A08F3070A08DF070A0888
:10383000FF070A0803080A0807080A080B080A080D
:10384000DD090A080000000000000000990E0A08C7
:10385000A9000A08A9000A08A9000A08A9000A087C
:10386000C3070A08D5070A083B080A0813080A080C
:10387000E3070A08E7070A08EB070A08EF070A0840
:10388000F3070A08DF070A08FF070A0803080A08FF
:1038900007080A080B080A080F080A080008101889
:1038A000202830386170700025592D256D2D256434
:1038B0005425483A254D3A2553257A00617363749F
:1038C000696D65000000000000000000A51F0A08E7
:1038D000AB1F0A08E91F0A08B91F0A08A71F0A0830
:1038E0000000000000000000ED240A08DD240A08A2
:1038F000DF240A080000000000000000A9250A08D3
:103900000F260A08E7250A086B1C0A08D9250A08A9
:10391000AB250A08BB250A0809260A08CB250A0890
:10392000A5250A08000000000000000065270A081D
:10393000CD270A08A9270A086B1C0A0879270A0854
:1039400095270A0887270A08A3270A0867270A086D
:103950006B270A080000000000000000B5280A08D4
:10396000FF280A08D7280A08B7280A08DF280A0803
:10397000E7280A08EF280A08F7280A0800000000CC
:1039800000000000C7290A08BD290A08B3290A084F
:1039900031290A082B1D0A08A7290A08252A0A081E
:1039A0002D2A0A089B290A0893290A0889290A0846
:1039B0007F290A083B290A080000000000000000D7
:1039C000E5290A08EF290A08F9290A08032A0A083A
:1039D0000D2A0A08192A0A08252A0A082D2A0A087F
:1039E000352A0A08412A0A08492A0A08532A0A08D5
:1039F0005D2A0A080000000005030A08A5090A0854
:103A000009170A08711D0A08F51D0A083D1E0A0853
:103A1000D1290A08AD2A0A08A12B0A0800000000D3
:043A200000000000A2
:103A240007000000BC380A080C0000200000000059
:103A34000000000000000000000000000000000082
:103A44000000000000000000000000000000000072
:103A54000000000000000000000000000000000062
:103A64000000000000000000000000000000000052
:103A74000000000000000000000000000000000042
:0C3A840000000000000000000000000036
:103A9000FFFFFFFF00000102030405060708090AF3
:103AA0000B0C0D0E0F101112131415161718191AEE
:083AB0001B1C1D1E1F20280035
:043AB80078563412F6
:04000005080A0020C5
:00000001FF
